{
  "contractName": "Controller",
  "abi": [
    {
      "anonymous": false,
      "inputs": [
        {
          "indexed": true,
          "name": "memeMarket",
          "type": "address"
        },
        {
          "indexed": true,
          "name": "to",
          "type": "address"
        },
        {
          "indexed": false,
          "name": "amountTokens",
          "type": "uint256"
        },
        {
          "indexed": false,
          "name": "totalCostEth",
          "type": "uint256"
        }
      ],
      "name": "Buy",
      "type": "event"
    },
    {
      "anonymous": false,
      "inputs": [
        {
          "indexed": true,
          "name": "memeMarket",
          "type": "address"
        },
        {
          "indexed": true,
          "name": "from",
          "type": "address"
        },
        {
          "indexed": false,
          "name": "amountTokens",
          "type": "uint256"
        },
        {
          "indexed": false,
          "name": "returnedEth",
          "type": "uint256"
        }
      ],
      "name": "Sell",
      "type": "event"
    },
    {
      "constant": false,
      "inputs": [
        {
          "name": "exponent",
          "type": "uint8"
        },
        {
          "name": "slope",
          "type": "uint32"
        },
        {
          "name": "totalSupply",
          "type": "uint256"
        },
        {
          "name": "poolBalance",
          "type": "uint256"
        },
        {
          "name": "numTokens",
          "type": "uint256"
        }
      ],
      "name": "priceToMint",
      "outputs": [
        {
          "name": "",
          "type": "uint256"
        }
      ],
      "payable": false,
      "stateMutability": "nonpayable",
      "type": "function"
    },
    {
      "constant": false,
      "inputs": [
        {
          "name": "exponent",
          "type": "uint8"
        },
        {
          "name": "slope",
          "type": "uint32"
        },
        {
          "name": "totalSupply",
          "type": "uint256"
        },
        {
          "name": "poolBalance",
          "type": "uint256"
        },
        {
          "name": "numTokens",
          "type": "uint256"
        }
      ],
      "name": "rewardForBurn",
      "outputs": [
        {
          "name": "",
          "type": "uint256"
        }
      ],
      "payable": false,
      "stateMutability": "nonpayable",
      "type": "function"
    },
    {
      "constant": false,
      "inputs": [
        {
          "name": "memeMarket",
          "type": "address"
        },
        {
          "name": "sender",
          "type": "address"
        },
        {
          "name": "numTokens",
          "type": "uint256"
        }
      ],
      "name": "buy",
      "outputs": [
        {
          "name": "",
          "type": "bool"
        }
      ],
      "payable": true,
      "stateMutability": "payable",
      "type": "function"
    },
    {
      "constant": false,
      "inputs": [
        {
          "name": "memeMarket",
          "type": "address"
        },
        {
          "name": "numTokens",
          "type": "uint256"
        }
      ],
      "name": "sell",
      "outputs": [],
      "payable": false,
      "stateMutability": "nonpayable",
      "type": "function"
    },
    {
      "constant": false,
      "inputs": [
        {
          "name": "sender",
          "type": "address"
        },
        {
          "name": "_name",
          "type": "string"
        },
        {
          "name": "_symbol",
          "type": "string"
        },
        {
          "name": "hash_function",
          "type": "uint8"
        },
        {
          "name": "size",
          "type": "uint8"
        },
        {
          "name": "_memehash",
          "type": "bytes32"
        },
        {
          "name": "_numTokens",
          "type": "uint256"
        }
      ],
      "name": "initMeme",
      "outputs": [
        {
          "name": "",
          "type": "bool"
        }
      ],
      "payable": true,
      "stateMutability": "payable",
      "type": "function"
    }
  ],
  "bytecode": "0x608060405234801561001057600080fd5b50611058806100206000396000f30060806040526004361061006d576000357c0100000000000000000000000000000000000000000000000000000000900463ffffffff1680630a3b7a4614610072578063153e66e6146100e4578063318b8e781461015c5780633a501871146102685780636c197ff5146102da575b600080fd5b34801561007e57600080fd5b506100ce600480360381019080803560ff169060200190929190803563ffffffff169060200190929190803590602001909291908035906020019092919080359060200190929190505050610327565b6040518082815260200191505060405180910390f35b610142600480360381019080803573ffffffffffffffffffffffffffffffffffffffff169060200190929190803573ffffffffffffffffffffffffffffffffffffffff16906020019092919080359060200190929190505050610363565b604051808215151515815260200191505060405180910390f35b61024e600480360381019080803573ffffffffffffffffffffffffffffffffffffffff169060200190929190803590602001908201803590602001908080601f0160208091040260200160405190810160405280939291908181526020018383808284378201915050505050509192919290803590602001908201803590602001908080601f0160208091040260200160405190810160405280939291908181526020018383808284378201915050505050509192919290803560ff169060200190929190803560ff1690602001909291908035600019169060200190929190803590602001909291905050506108d6565b604051808215151515815260200191505060405180910390f35b34801561027457600080fd5b506102c4600480360381019080803560ff169060200190929190803563ffffffff1690602001909291908035906020019092919080359060200190929190803590602001909291905050506108fd565b6040518082815260200191505060405180910390f35b3480156102e657600080fd5b50610325600480360381019080803573ffffffffffffffffffffffffffffffffffffffff16906020019092919080359060200190929190505050610939565b005b60006103588361034a8888610345878a610f9e90919063ffffffff16565b610fba565b610ffd90919063ffffffff16565b905095945050505050565b6000806000806000806000803496508a73ffffffffffffffffffffffffffffffffffffffff166318160ddd6040518163ffffffff167c0100000000000000000000000000000000000000000000000000000000028152600401602060405180830381600087803b1580156103d657600080fd5b505af11580156103ea573d6000803e3d6000fd5b505050506040513d602081101561040057600080fd5b810190808051906020019092919050505095508a73ffffffffffffffffffffffffffffffffffffffff166396365d446040518163ffffffff167c0100000000000000000000000000000000000000000000000000000000028152600401602060405180830381600087803b15801561047757600080fd5b505af115801561048b573d6000803e3d6000fd5b505050506040513d60208110156104a157600080fd5b810190808051906020019092919050505094508a73ffffffffffffffffffffffffffffffffffffffff166352f6ee586040518163ffffffff167c0100000000000000000000000000000000000000000000000000000000028152600401602060405180830381600087803b15801561051857600080fd5b505af115801561052c573d6000803e3d6000fd5b505050506040513d602081101561054257600080fd5b810190808051906020019092919050505093508a73ffffffffffffffffffffffffffffffffffffffff166383caf2756040518163ffffffff167c0100000000000000000000000000000000000000000000000000000000028152600401602060405180830381600087803b1580156105b957600080fd5b505af11580156105cd573d6000803e3d6000fd5b505050506040513d60208110156105e357600080fd5b81019080805190602001909291905050509250610603848488888d610327565b915081341015151561061457600080fd5b8a73ffffffffffffffffffffffffffffffffffffffff166340c10f198b8b6040518363ffffffff167c0100000000000000000000000000000000000000000000000000000000028152600401808373ffffffffffffffffffffffffffffffffffffffff1673ffffffffffffffffffffffffffffffffffffffff16815260200182815260200192505050602060405180830381600087803b1580156106b757600080fd5b505af11580156106cb573d6000803e3d6000fd5b505050506040513d60208110156106e157600080fd5b810190808051906020019092919050505015156106fd57600080fd5b8a73ffffffffffffffffffffffffffffffffffffffff166354dfcab661072c8488610f9e90919063ffffffff16565b6040518263ffffffff167c010000000000000000000000000000000000000000000000000000000002815260040180828152602001915050600060405180830381600087803b15801561077e57600080fd5b505af1158015610792573d6000803e3d6000fd5b5050505081871115610810576107b18288610ffd90919063ffffffff16565b90508973ffffffffffffffffffffffffffffffffffffffff166108fc829081150290604051600060405180830381858888f193505050501580156107f9573d6000803e3d6000fd5b5061080d8188610ffd90919063ffffffff16565b96505b8a73ffffffffffffffffffffffffffffffffffffffff166108fc889081150290604051600060405180830381858888f19350505050158015610856573d6000803e3d6000fd5b508973ffffffffffffffffffffffffffffffffffffffff168b73ffffffffffffffffffffffffffffffffffffffff167f89f5adc174562e07c9c9b1cae7109bbecb21cf9d1b2847e550042b8653c54a0e8b85604051808381526020018281526020019250505060405180910390a360019750505050505050509392505050565b60006108e3338984610363565b15156108ee57600080fd5b60019050979650505050505050565b600061092e61091f878761091a8689610ffd90919063ffffffff16565b610fba565b84610ffd90919063ffffffff16565b905095945050505050565b6000806000806000808773ffffffffffffffffffffffffffffffffffffffff166370a08231336040518263ffffffff167c0100000000000000000000000000000000000000000000000000000000028152600401808273ffffffffffffffffffffffffffffffffffffffff1673ffffffffffffffffffffffffffffffffffffffff168152602001915050602060405180830381600087803b1580156109dd57600080fd5b505af11580156109f1573d6000803e3d6000fd5b505050506040513d6020811015610a0757600080fd5b81019080805190602001909291905050509550868610151515610a2957600080fd5b8773ffffffffffffffffffffffffffffffffffffffff166318160ddd6040518163ffffffff167c0100000000000000000000000000000000000000000000000000000000028152600401602060405180830381600087803b158015610a8d57600080fd5b505af1158015610aa1573d6000803e3d6000fd5b505050506040513d6020811015610ab757600080fd5b810190808051906020019092919050505094508773ffffffffffffffffffffffffffffffffffffffff166396365d446040518163ffffffff167c0100000000000000000000000000000000000000000000000000000000028152600401602060405180830381600087803b158015610b2e57600080fd5b505af1158015610b42573d6000803e3d6000fd5b505050506040513d6020811015610b5857600080fd5b810190808051906020019092919050505093508773ffffffffffffffffffffffffffffffffffffffff166352f6ee586040518163ffffffff167c0100000000000000000000000000000000000000000000000000000000028152600401602060405180830381600087803b158015610bcf57600080fd5b505af1158015610be3573d6000803e3d6000fd5b505050506040513d6020811015610bf957600080fd5b810190808051906020019092919050505092508773ffffffffffffffffffffffffffffffffffffffff166383caf2756040518163ffffffff167c0100000000000000000000000000000000000000000000000000000000028152600401602060405180830381600087803b158015610c7057600080fd5b505af1158015610c84573d6000803e3d6000fd5b505050506040513d6020811015610c9a57600080fd5b81019080805190602001909291905050509150610cba838387878b6108fd565b90508773ffffffffffffffffffffffffffffffffffffffff16639dc29fac33896040518363ffffffff167c0100000000000000000000000000000000000000000000000000000000028152600401808373ffffffffffffffffffffffffffffffffffffffff1673ffffffffffffffffffffffffffffffffffffffff16815260200182815260200192505050602060405180830381600087803b158015610d5f57600080fd5b505af1158015610d73573d6000803e3d6000fd5b505050506040513d6020811015610d8957600080fd5b81019080805190602001909291905050501515610da557600080fd5b8773ffffffffffffffffffffffffffffffffffffffff166354dfcab6610dd48387610ffd90919063ffffffff16565b6040518263ffffffff167c010000000000000000000000000000000000000000000000000000000002815260040180828152602001915050600060405180830381600087803b158015610e2657600080fd5b505af1158015610e3a573d6000803e3d6000fd5b505050508773ffffffffffffffffffffffffffffffffffffffff166349dcbc5e33836040518363ffffffff167c0100000000000000000000000000000000000000000000000000000000028152600401808373ffffffffffffffffffffffffffffffffffffffff1673ffffffffffffffffffffffffffffffffffffffff16815260200182815260200192505050602060405180830381600087803b158015610ee157600080fd5b505af1158015610ef5573d6000803e3d6000fd5b505050506040513d6020811015610f0b57600080fd5b81019080805190602001909291905050501515610f2757600080fd5b3373ffffffffffffffffffffffffffffffffffffffff168873ffffffffffffffffffffffffffffffffffffffff167fa082022e93cfcd9f1da5f9236718053910f7e840da080c789c7845698dc032ff8984604051808381526020018281526020019250505060405180910390a35050505050505050565b60008183019050828110151515610fb157fe5b80905092915050565b6000806001850160ff169050610ff38463ffffffff16610fe58384870a61101690919063ffffffff16565b61101690919063ffffffff16565b9150509392505050565b600082821115151561100b57fe5b818303905092915050565b6000818381151561102357fe5b049050929150505600a165627a7a72305820ae81a9791347791df36bf13b998d6f1e6bf0242b6c615baf8a2b98c6ea54723f0029",
  "source": "import \"./ControllerI.sol\";\nimport \"./ERC20MainI.sol\";\nimport \"zeppelin-solidity/contracts/math/SafeMath.sol\";\n\ncontract Controller is ControllerI {\n    using SafeMath for uint256;\n\n    event Buy(address indexed memeMarket, address indexed to, uint256 amountTokens, uint256 totalCostEth);\n    event Sell(address indexed memeMarket, address indexed from, uint256 amountTokens, uint256 returnedEth);\n\n      function curveIntegral(uint8 exponent, uint32 slope, uint256 tokens) internal returns (uint256) {\n        uint256 nexp = exponent + 1;\n        return (tokens ** nexp).div(nexp).div(slope);\n      }\n\n      function priceToMint(\n        uint8 exponent,\n        uint32 slope,\n        uint256 totalSupply,\n        uint256 poolBalance,\n        uint256 numTokens) public returns(uint256) {\n        return curveIntegral(exponent, slope, totalSupply.add(numTokens)).sub(poolBalance);\n      }\n\n      function rewardForBurn(\n        uint8 exponent,\n        uint32 slope,\n        uint256 totalSupply,\n        uint256 poolBalance,\n        uint256 numTokens) public returns(uint256) {\n        return poolBalance.sub(curveIntegral(exponent, slope, totalSupply.sub(numTokens)));\n      }\n\n\n  /// @dev                Mint new tokens with ether\n  /// @param memeMarket   the marketplace\n  /// @param numTokens    The number of tokens you want to mint\n  function buy(address memeMarket, address sender, uint256 numTokens) public payable returns (bool){\n    uint256 sentEther = msg.value;\n    uint256 totalSupply = ERC20MainI(memeMarket).totalSupply();\n    uint256 poolBalance = ERC20MainI(memeMarket).poolBalance();\n    uint8 exponent = ERC20MainI(memeMarket).exponent();\n    uint32 slope = ERC20MainI(memeMarket).slope();\n\n    uint256 priceForTokens = priceToMint(exponent, slope, totalSupply, poolBalance, numTokens);\n    require(msg.value >= priceForTokens);\n\n    require(ERC20MainI(memeMarket).mint(sender, numTokens));\n    ERC20MainI(memeMarket).setPoolBalance(poolBalance.add(priceForTokens));\n\n    if (sentEther > priceForTokens) {\n      uint256 refundAmount = sentEther.sub(priceForTokens);\n      sender.transfer(refundAmount);\n      sentEther = sentEther.sub(refundAmount);\n    }\n    memeMarket.transfer(sentEther);\n    emit Buy(memeMarket, sender, numTokens, priceForTokens);\n    return true;\n  }\n\n  /// @dev                Burn tokens to receive ether\n  /// @param numTokens    The number of tokens that you want to burn\n  function sell(address memeMarket, uint256 numTokens) public {\n    uint256 senderBalance = ERC20MainI(memeMarket).balanceOf(msg.sender);\n    require(senderBalance >= numTokens);\n\n    uint256 totalSupply = ERC20MainI(memeMarket).totalSupply();\n    uint256 poolBalance = ERC20MainI(memeMarket).poolBalance();\n    uint8 exponent = ERC20MainI(memeMarket).exponent();\n    uint32 slope = ERC20MainI(memeMarket).slope();\n\n    uint256 ethToReturn = rewardForBurn(exponent, slope, totalSupply, poolBalance, numTokens);\n    \n    require(ERC20MainI(memeMarket).burn(msg.sender, numTokens));\n    ERC20MainI(memeMarket).setPoolBalance(poolBalance.sub(ethToReturn));\n    require(ERC20MainI(memeMarket).sendEth(msg.sender, ethToReturn));\n\n    emit Sell(memeMarket, msg.sender, numTokens, ethToReturn);\n  }\n\n  function initMeme(\n    address sender,\n    string _name,\n    string _symbol,\n    uint8 hash_function,\n    uint8 size,\n    bytes32 _memehash,\n    uint256 _numTokens) public payable returns (bool) {\n      require(buy(msg.sender, sender, _numTokens));\n      return true;\n  }\n}\n",
  "sourcePath": "/media/000/Documents/meme-lordz/contracts/Controller.sol",
  "compiler": {
    "name": "solc",
    "version": "0.4.24+commit.e67f0147.Emscripten.clang"
  },
  "schemaVersion": "2.0.1",
  "updatedAt": "2018-09-08T13:14:08.346Z"
}