{
  "contractName": "Controller",
  "abi": [
    {
      "constant": true,
      "inputs": [],
      "name": "reserveRatio",
      "outputs": [
        {
          "name": "",
          "type": "uint32"
        }
      ],
      "payable": false,
      "stateMutability": "view",
      "type": "function"
    },
    {
      "constant": true,
      "inputs": [],
      "name": "virtualSupply",
      "outputs": [
        {
          "name": "",
          "type": "uint256"
        }
      ],
      "payable": false,
      "stateMutability": "view",
      "type": "function"
    },
    {
      "constant": true,
      "inputs": [
        {
          "name": "_supply",
          "type": "uint256"
        },
        {
          "name": "_connectorBalance",
          "type": "uint256"
        },
        {
          "name": "_connectorWeight",
          "type": "uint32"
        },
        {
          "name": "_depositAmount",
          "type": "uint256"
        }
      ],
      "name": "calculatePurchaseReturn",
      "outputs": [
        {
          "name": "",
          "type": "uint256"
        }
      ],
      "payable": false,
      "stateMutability": "view",
      "type": "function"
    },
    {
      "constant": true,
      "inputs": [
        {
          "name": "_supply",
          "type": "uint256"
        },
        {
          "name": "_connectorBalance",
          "type": "uint256"
        },
        {
          "name": "_connectorWeight",
          "type": "uint32"
        },
        {
          "name": "_sellAmount",
          "type": "uint256"
        }
      ],
      "name": "calculateSaleReturn",
      "outputs": [
        {
          "name": "",
          "type": "uint256"
        }
      ],
      "payable": false,
      "stateMutability": "view",
      "type": "function"
    },
    {
      "constant": true,
      "inputs": [],
      "name": "exponent",
      "outputs": [
        {
          "name": "",
          "type": "uint32"
        }
      ],
      "payable": false,
      "stateMutability": "view",
      "type": "function"
    },
    {
      "constant": true,
      "inputs": [],
      "name": "version",
      "outputs": [
        {
          "name": "",
          "type": "string"
        }
      ],
      "payable": false,
      "stateMutability": "view",
      "type": "function"
    },
    {
      "constant": true,
      "inputs": [
        {
          "name": "_fromConnectorBalance",
          "type": "uint256"
        },
        {
          "name": "_fromConnectorWeight",
          "type": "uint32"
        },
        {
          "name": "_toConnectorBalance",
          "type": "uint256"
        },
        {
          "name": "_toConnectorWeight",
          "type": "uint32"
        },
        {
          "name": "_amount",
          "type": "uint256"
        }
      ],
      "name": "calculateCrossConnectorReturn",
      "outputs": [
        {
          "name": "",
          "type": "uint256"
        }
      ],
      "payable": false,
      "stateMutability": "view",
      "type": "function"
    },
    {
      "constant": true,
      "inputs": [],
      "name": "slope",
      "outputs": [
        {
          "name": "",
          "type": "uint32"
        }
      ],
      "payable": false,
      "stateMutability": "view",
      "type": "function"
    },
    {
      "constant": true,
      "inputs": [],
      "name": "virtualBalance",
      "outputs": [
        {
          "name": "",
          "type": "uint256"
        }
      ],
      "payable": false,
      "stateMutability": "view",
      "type": "function"
    },
    {
      "inputs": [
        {
          "name": "_reserveRatio",
          "type": "uint32"
        },
        {
          "name": "_virtualSupply",
          "type": "uint256"
        },
        {
          "name": "_virtualBalance",
          "type": "uint256"
        }
      ],
      "payable": false,
      "stateMutability": "nonpayable",
      "type": "constructor"
    },
    {
      "anonymous": false,
      "inputs": [
        {
          "indexed": false,
          "name": "number",
          "type": "uint256"
        }
      ],
      "name": "logUint256",
      "type": "event"
    },
    {
      "anonymous": false,
      "inputs": [
        {
          "indexed": false,
          "name": "number",
          "type": "uint8"
        }
      ],
      "name": "logUint8",
      "type": "event"
    },
    {
      "anonymous": false,
      "inputs": [
        {
          "indexed": true,
          "name": "memeMarket",
          "type": "address"
        },
        {
          "indexed": true,
          "name": "to",
          "type": "address"
        },
        {
          "indexed": false,
          "name": "poolBalance",
          "type": "uint256"
        },
        {
          "indexed": false,
          "name": "tokenSupply",
          "type": "uint256"
        },
        {
          "indexed": false,
          "name": "amountTokens",
          "type": "uint256"
        },
        {
          "indexed": false,
          "name": "totalCostEth",
          "type": "uint256"
        }
      ],
      "name": "Buy",
      "type": "event"
    },
    {
      "anonymous": false,
      "inputs": [
        {
          "indexed": true,
          "name": "memeMarket",
          "type": "address"
        },
        {
          "indexed": true,
          "name": "from",
          "type": "address"
        },
        {
          "indexed": false,
          "name": "poolBalance",
          "type": "uint256"
        },
        {
          "indexed": false,
          "name": "tokenSupply",
          "type": "uint256"
        },
        {
          "indexed": false,
          "name": "amountTokens",
          "type": "uint256"
        },
        {
          "indexed": false,
          "name": "returnedEth",
          "type": "uint256"
        }
      ],
      "name": "Sell",
      "type": "event"
    },
    {
      "constant": true,
      "inputs": [
        {
          "name": "totalSupply",
          "type": "uint256"
        },
        {
          "name": "poolBalance",
          "type": "uint256"
        },
        {
          "name": "buyValue",
          "type": "uint256"
        }
      ],
      "name": "getBuy",
      "outputs": [
        {
          "name": "",
          "type": "uint256"
        }
      ],
      "payable": false,
      "stateMutability": "view",
      "type": "function"
    },
    {
      "constant": true,
      "inputs": [
        {
          "name": "totalSupply",
          "type": "uint256"
        },
        {
          "name": "poolBalance",
          "type": "uint256"
        },
        {
          "name": "sellAmount",
          "type": "uint256"
        }
      ],
      "name": "getSell",
      "outputs": [
        {
          "name": "",
          "type": "uint256"
        }
      ],
      "payable": false,
      "stateMutability": "view",
      "type": "function"
    },
    {
      "constant": false,
      "inputs": [
        {
          "name": "memeMarket",
          "type": "address"
        },
        {
          "name": "sender",
          "type": "address"
        }
      ],
      "name": "buy",
      "outputs": [
        {
          "name": "",
          "type": "bool"
        }
      ],
      "payable": true,
      "stateMutability": "payable",
      "type": "function"
    },
    {
      "constant": false,
      "inputs": [
        {
          "name": "memeMarket",
          "type": "address"
        },
        {
          "name": "sellAmount",
          "type": "uint256"
        }
      ],
      "name": "sell",
      "outputs": [
        {
          "name": "",
          "type": "bool"
        }
      ],
      "payable": false,
      "stateMutability": "nonpayable",
      "type": "function"
    },
    {
      "constant": false,
      "inputs": [
        {
          "name": "sender",
          "type": "address"
        },
        {
          "name": "_name",
          "type": "string"
        },
        {
          "name": "_symbol",
          "type": "string"
        },
        {
          "name": "hash_function",
          "type": "uint8"
        },
        {
          "name": "size",
          "type": "uint8"
        },
        {
          "name": "_memehash",
          "type": "bytes32"
        }
      ],
      "name": "initMeme",
      "outputs": [
        {
          "name": "",
          "type": "bool"
        }
      ],
      "payable": true,
      "stateMutability": "payable",
      "type": "function"
    }
  ],
  "bytecode": "0x60c0604052600360808190527f302e33000000000000000000000000000000000000000000000000000000000060a090815262000040916000919062000868565b506083805467ffffffff00000000191664020000000017604060020a63ffffffff0219166903e800000000000000001790553480156200007f57600080fd5b5060405160608062002d2483398101604090815281516020830151928201516001606060020a641c35fedd1502036021556001605e60020a646c3390ecc902036022556001606160020a640cf801476102036023556001605f60020a6431bdb23e1d02036024556001605b60020a6502fb1d8fe08302036025556001605a60020a6505b771955b3702036026556001605960020a650af67a93bb5102036027556001605860020a6515060c256cb302036028556001605860020a651428a2f98d7302036029556001605660020a654d51566397090203602a556001605560020a65944620b0e70f0203602b557011c592761c666fffffffffffffffffffff602c5570110a688680a757ffffffffffffffffffff602d55701056f1b5bedf77ffffffffffffffffffff602e55700faadceceeff8bffffffffffffffffffff602f55700f05dc6b27edadffffffffffffffffffff603055700e67a5a25da4107fffffffffffffffffff603155700dcff115b14eedffffffffffffffffffff603255700d3e7a392431239fffffffffffffffffff603355700cb2ff529eb71e4fffffffffffffffffff603455700c2d415c3db974afffffffffffffffffff603555700bad03e7d883f69bffffffffffffffffff603655700b320d03b2c343d5ffffffffffffffffff603755700abc25204e02828dffffffffffffffffff603855700a4b16f74ee4bb207fffffffffffffffff6039557009deaf736ac1f569ffffffffffffffffff603a55700976bd9952c7aa957fffffffffffffffff603b557009131271922eaa606fffffffffffffffff603c557008b380f3558668c46fffffffffffffffff603d55700857ddf0117efa215bffffffffffffffff603e556001608360020a03603f557007abbf6f6abb9d087fffffffffffffffff90925570075af62cbac95f7dfa7fffffffffffffff60415570070d7fb7452e187ac13fffffffffffffff6042557006c3390ecc8af379295fffffffffffffff60435570067c00a3b07ffc01fd6fffffffffffffff604455700637b647c39cbb9d3d27ffffffffffffff6045557005f63b1fc104dbd39587ffffffffffffff6046557005b771955b36e12f7235ffffffffffffff60475570057b3d49dda84556d6f6ffffffffffffff60485570054183095b2c8ececf30ffffffffffffff60495570050a28be635ca2b888f77fffffffffffff604a557004d5156639708c9db33c3fffffffffffff604b557004a23105873875bd52dfdfffffffffffff604c55700471649d87199aa990756fffffffffffff604d557004429a21a029d4c1457cfbffffffffffff604e55700415bc6d6fb7dd71af2cb3ffffffffffff604f557003eab73b3bbfe282243ce1ffffffffffff6050557003c1771ac9fb6b4c18e229ffffffffffff605155700399e96897690418f785257fffffffffff605255700373fc456c53bb779bf0ea9fffffffffff60535570034f9e8e490c48e67e6ab8bfffffffffff60545570032cbfd4a7adc790560b3337ffffffffff60555570030b50570f6e5d2acca94613ffffffffff6056557002eb40f9f620fda6b56c2861ffffffffff6057557002cc8340ecb0d0f520a6af58ffffffffff6058557002af09481380a0a35cf1ba02ffffffffff605955700292c5bdd3b92ec810287b1b3fffffffff605a55700277abdcdab07d5a77ac6d6b9fffffffff605b5570025daf6654b1eaa55fd64df5efffffffff605c55700244c49c648baa98192dce88b7ffffffff605d5570022ce03cd5619a311b2471268bffffffff605e55700215f77c045fbe885654a44a0fffffffff605f556001608160020a036060557001eaefdbdaaee7421fc4d3ede5ffffffff6061557001d6bd8b2eb257df7e8ca57b09bfffffff6062557001c35fedd14b861eb0443f7f133fffffff6063557001b0ce43b322bcde4a56e8ada5afffffff60645570019f0028ec1fff007f5a195a39dfffffff60655570018ded91f0e72ee74f49b15ba527ffffff60665570017d8ec7f04136f4e5615fd41a63ffffff60675570016ddc6556cdb84bdc8d12d22e6fffffff60685570015ecf52776a1155b5bd8395814f7fffff60695570015060c256cb23b3b3cc3754cf40ffffff606a557001428a2f98d728ae223ddab715be3fffff606b5570013545598e5c23276ccf0ede68034fffff606c557001288c4161ce1d6f54b7f61081194fffff606d5570011c592761c666aa641d5a01a40f17ffff606e55700110a688680a7530515f3e6e6cfdcdffff606f557001056f1b5bedf75c6bcb2ce8aed428ffff6070556ffaadceceeff8a0890f3875f008277fff6071556ff05dc6b27edad306388a600f6ba0bfff6072556fe67a5a25da41063de1495d5b18cdbfff6073556fdcff115b14eedde6fc3aa5353f2e4fff6074556fd3e7a3924312399f9aae2e0f868f8fff6075556fcb2ff529eb71e41582cccd5a1ee26fff6076556fc2d415c3db974ab32a51840c0b67edff6077556fbad03e7d883f69ad5b0a186184e06bff6078556fb320d03b2c343d4829abd6075f0cc5ff6079556fabc25204e02828d73c6e80bcdb1a95bf607a556fa4b16f74ee4bb2040a1ec6c15fbbf2df607b556f9deaf736ac1f569deb1b5ae3f36c130f607c556f976bd9952c7aa957f5937d790ef65037607d556f9131271922eaa6064b73a22d0bd4f2bf607e556f8b380f3558668c46c91c49a2f8e967b9607f556f857ddf0117efa215952912839f6473e66080556083805463ffffffff191663ffffffff9092169190911790556082919091556081556200090d565b828054600181600116156101000203166002900490600052602060002090601f016020900481019282601f10620008ab57805160ff1916838001178555620008db565b82800160010185558215620008db579182015b82811115620008db578251825591602001919060010190620008be565b50620008e9929150620008ed565b5090565b6200090a91905b80821115620008e95760008155600101620008f4565b90565b612407806200091d6000396000f3006080604052600436106100cf5763ffffffff7c01000000000000000000000000000000000000000000000000000000006000350416630c7d5cd881146100d4578063277b2f971461010257806329a00e7c1461012957806349f9b0f71461015057806352f6ee581461017757806354fd4d501461018c57806365098bb3146102165780636c197ff5146102445780637abc91a41461028957806383caf275146102a75780638ddb4773146102bc578063ad7fadc514610373578063dcd2af171461039a578063e83b8caa146103af575b600080fd5b3480156100e057600080fd5b506100e96103cd565b6040805163ffffffff9092168252519081900360200190f35b34801561010e57600080fd5b506101176103d9565b60408051918252519081900360200190f35b34801561013557600080fd5b5061011760043560243563ffffffff604435166064356103df565b34801561015c57600080fd5b5061011760043560243563ffffffff604435166064356104ad565b34801561018357600080fd5b506100e961059e565b34801561019857600080fd5b506101a16105b2565b6040805160208082528351818301528351919283929083019185019080838360005b838110156101db5781810151838201526020016101c3565b50505050905090810190601f1680156102085780820380516001836020036101000a031916815260200191505b509250505060405180910390f35b34801561022257600080fd5b5061011760043563ffffffff602435811690604435906064351660843561065e565b34801561025057600080fd5b5061027573ffffffffffffffffffffffffffffffffffffffff6004351660243561075b565b604080519115158252519081900360200190f35b34801561029557600080fd5b50610117600435602435604435610cf8565b3480156102b357600080fd5b506100e9610d2c565b60408051602060046024803582810135601f810185900485028601850190965285855261027595833573ffffffffffffffffffffffffffffffffffffffff1695369560449491939091019190819084018382808284375050604080516020601f89358b018035918201839004830284018301909452808352979a9998810197919650918201945092508291508401838280828437509497505060ff85358116965060208601351694604001359350610d4492505050565b61027573ffffffffffffffffffffffffffffffffffffffff60043581169060243516610d70565b3480156103a657600080fd5b5061011761121d565b3480156103bb57600080fd5b50610117600435602435604435611223565b60835463ffffffff1681565b60825481565b600080600080600080891180156103f65750600088115b8015610408575060008763ffffffff16115b801561041d5750620f424063ffffffff881611155b151561042857600080fd5b85151561043857600094506104a1565b63ffffffff8716620f4240141561046557876104548a8861124f565b81151561045d57fe5b0494506104a1565b61046f868961127a565b9150610480828989620f4240611289565b909450925060ff83166104938a8661124f565b9060020a9004905088810394505b50505050949350505050565b60008060008060008060008a1180156104c65750600089115b80156104d8575060008863ffffffff16115b80156104ed5750620f424063ffffffff891611155b80156104f95750898711155b151561050457600080fd5b8615156105145760009550610591565b8987141561052457889550610591565b63ffffffff8816620f4240141561055157896105408a8961124f565b81151561054957fe5b049550610591565b868a0392506105658a84620f42408b611289565b9095509350610574898661124f565b91505060ff831660020a88028481830381151561058d57fe5b0495505b5050505050949350505050565b608354640100000000900463ffffffff1681565b6000805460408051602060026001851615610100027fffffffffffffffffffffffffffffffffffffffffffffffffffffffffffffffff0190941693909304601f810184900484028201840190925281815292918301828280156106565780601f1061062b57610100808354040283529160200191610656565b820191906000526020600020905b81548152906001019060200180831161063957829003601f168201915b505050505081565b60008060008060008060008b11801561067d575060008a63ffffffff16115b80156106925750620f424063ffffffff8b1611155b801561069e5750600089115b80156106b0575060008863ffffffff16115b80156106c55750620f424063ffffffff891611155b15156106d057600080fd5b8763ffffffff168a63ffffffff161415610709576106ee8b8861127a565b6106f88a8961124f565b81151561070157fe5b04955061074d565b6107138b8861127a565b9250610721838c8c8b611289565b9095509350610730898661124f565b91505060ff831660020a88028481830381151561074957fe5b0495505b505050505095945050505050565b600080808080851161076c57600080fd5b604080517f70a082310000000000000000000000000000000000000000000000000000000081523360048201529051869173ffffffffffffffffffffffffffffffffffffffff8916916370a08231916024808201926020929091908290030181600087803b1580156107dd57600080fd5b505af11580156107f1573d6000803e3d6000fd5b505050506040513d602081101561080757600080fd5b5051101561081457600080fd5b8573ffffffffffffffffffffffffffffffffffffffff166318160ddd6040518163ffffffff167c0100000000000000000000000000000000000000000000000000000000028152600401602060405180830381600087803b15801561087857600080fd5b505af115801561088c573d6000803e3d6000fd5b505050506040513d60208110156108a257600080fd5b5051604080517f96365d44000000000000000000000000000000000000000000000000000000008152905191945073ffffffffffffffffffffffffffffffffffffffff8816916396365d44916004808201926020929091908290030181600087803b15801561091057600080fd5b505af1158015610924573d6000803e3d6000fd5b505050506040513d602081101561093a57600080fd5b50519150610949838387610cf8565b90506000811161095857600080fd5b8181111561096557600080fd5b604080517f9dc29fac00000000000000000000000000000000000000000000000000000000815233600482015260248101879052905173ffffffffffffffffffffffffffffffffffffffff881691639dc29fac9160448083019260209291908290030181600087803b1580156109da57600080fd5b505af11580156109ee573d6000803e3d6000fd5b505050506040513d6020811015610a0457600080fd5b50511515610a1157600080fd5b73ffffffffffffffffffffffffffffffffffffffff86166354dfcab6610a3d848463ffffffff61137c16565b6040518263ffffffff167c010000000000000000000000000000000000000000000000000000000002815260040180828152602001915050600060405180830381600087803b158015610a8f57600080fd5b505af1158015610aa3573d6000803e3d6000fd5b5050604080517f49dcbc5e00000000000000000000000000000000000000000000000000000000815233600482015260248101859052905173ffffffffffffffffffffffffffffffffffffffff8a1693506349dcbc5e925060448083019260209291908290030181600087803b158015610b1c57600080fd5b505af1158015610b30573d6000803e3d6000fd5b505050506040513d6020811015610b4657600080fd5b50511515610b5357600080fd5b3373ffffffffffffffffffffffffffffffffffffffff168673ffffffffffffffffffffffffffffffffffffffff167f4f4be38a8508fd47fad5f6d8d4dc1753a805beb3ce3f769802abc4d2165a6d8a8873ffffffffffffffffffffffffffffffffffffffff166396365d446040518163ffffffff167c0100000000000000000000000000000000000000000000000000000000028152600401602060405180830381600087803b158015610c0657600080fd5b505af1158015610c1a573d6000803e3d6000fd5b505050506040513d6020811015610c3057600080fd5b5051604080517f18160ddd000000000000000000000000000000000000000000000000000000008152905173ffffffffffffffffffffffffffffffffffffffff8c16916318160ddd9160048083019260209291908290030181600087803b158015610c9a57600080fd5b505af1158015610cae573d6000803e3d6000fd5b505050506040513d6020811015610cc457600080fd5b50516040805192835260208301919091528181018a905260608201869052519081900360800190a350600195945050505050565b6000610d24610d098560825461127a565b610d158560815461127a565b60835463ffffffff16856104ad565b949350505050565b60835468010000000000000000900463ffffffff1681565b600080341115610d6357610d583388610d70565b1515610d6357600080fd5b5060019695505050505050565b6000808080348110610d8157600080fd5b8573ffffffffffffffffffffffffffffffffffffffff166318160ddd6040518163ffffffff167c0100000000000000000000000000000000000000000000000000000000028152600401602060405180830381600087803b158015610de557600080fd5b505af1158015610df9573d6000803e3d6000fd5b505050506040513d6020811015610e0f57600080fd5b5051604080517f96365d44000000000000000000000000000000000000000000000000000000008152905191945073ffffffffffffffffffffffffffffffffffffffff8816916396365d44916004808201926020929091908290030181600087803b158015610e7d57600080fd5b505af1158015610e91573d6000803e3d6000fd5b505050506040513d6020811015610ea757600080fd5b50519150610eb6838334611223565b905060008111610ec557600080fd5b8573ffffffffffffffffffffffffffffffffffffffff166340c10f1986836040518363ffffffff167c0100000000000000000000000000000000000000000000000000000000028152600401808373ffffffffffffffffffffffffffffffffffffffff1673ffffffffffffffffffffffffffffffffffffffff16815260200182815260200192505050602060405180830381600087803b158015610f6857600080fd5b505af1158015610f7c573d6000803e3d6000fd5b505050506040513d6020811015610f9257600080fd5b50511515610f9f57600080fd5b73ffffffffffffffffffffffffffffffffffffffff86166354dfcab6610fcb843463ffffffff61138e16565b6040518263ffffffff167c010000000000000000000000000000000000000000000000000000000002815260040180828152602001915050600060405180830381600087803b15801561101d57600080fd5b505af1158015611031573d6000803e3d6000fd5b505060405173ffffffffffffffffffffffffffffffffffffffff891692503480156108fc029250906000818181858888f19350505050158015611078573d6000803e3d6000fd5b508473ffffffffffffffffffffffffffffffffffffffff168673ffffffffffffffffffffffffffffffffffffffff167f75a85e7be0265abefef113ee168a0d751385a985c3a37920ae97ae192d2eadb48873ffffffffffffffffffffffffffffffffffffffff166396365d446040518163ffffffff167c0100000000000000000000000000000000000000000000000000000000028152600401602060405180830381600087803b15801561112c57600080fd5b505af1158015611140573d6000803e3d6000fd5b505050506040513d602081101561115657600080fd5b5051604080517f18160ddd000000000000000000000000000000000000000000000000000000008152905173ffffffffffffffffffffffffffffffffffffffff8c16916318160ddd9160048083019260209291908290030181600087803b1580156111c057600080fd5b505af11580156111d4573d6000803e3d6000fd5b505050506040513d60208110156111ea57600080fd5b5051604080519283526020830191909152818101869052346060830152519081900360800190a350600195945050505050565b60815481565b6000610d246112348560825461127a565b6112408560815461127a565b60835463ffffffff16856103df565b600082820283158061126b575082848281151561126857fe5b04145b151561127357fe5b9392505050565b60008282018381101561127357fe5b600080808080807002000000000000000000000000000000008a106112aa57fe5b886f800000000000000000000000000000008b028115156112c757fe5b04925070015bf0a8b1457695355fb8ac404e7a79e38310156112f3576112ec836113a1565b93506112ff565b6112fc83611895565b93505b8663ffffffff168863ffffffff16850281151561131857fe5b0491507008000000000000000000000000000000008210156113485761133d826119d4565b607f9550955061136f565b61135182611eb9565b905061136960ff607f8390031660020a830482611f48565b81955095505b5050505094509492505050565b60008282111561138857fe5b50900390565b8181018281101561139b57fe5b92915050565b6000808080806fd3094c70f034de4b96ff7d5b6f99fcd886106113fc576f4000000000000000000000000000000093909301926fd3094c70f034de4b96ff7d5b6f99fcd86f8000000000000000000000000000000087020495505b6fa45af1e1f40c333b3de1db4dd55f29a78610611451576f2000000000000000000000000000000093909301926fa45af1e1f40c333b3de1db4dd55f29a76f8000000000000000000000000000000087020495505b6f910b022db7ae67ce76b441c27035c6a186106114a6576f1000000000000000000000000000000093909301926f910b022db7ae67ce76b441c27035c6a16f8000000000000000000000000000000087020495505b6f88415abbe9a76bead8d00cf112e4d4a886106114fb576f0800000000000000000000000000000093909301926f88415abbe9a76bead8d00cf112e4d4a86f8000000000000000000000000000000087020495505b6f84102b00893f64c705e841d5d4064bd38610611550576f0400000000000000000000000000000093909301926f84102b00893f64c705e841d5d4064bd36f8000000000000000000000000000000087020495505b6f8204055aaef1c8bd5c3259f4822735a286106115a5576f0200000000000000000000000000000093909301926f8204055aaef1c8bd5c3259f4822735a26f8000000000000000000000000000000087020495505b6f810100ab00222d861931c15e39b44e9986106115fa576f0100000000000000000000000000000093909301926f810100ab00222d861931c15e39b44e996f8000000000000000000000000000000087020495505b6f808040155aabbbe9451521693554f733861061164e576e80000000000000000000000000000093909301926f808040155aabbbe9451521693554f7336f8000000000000000000000000000000087020495505b7fffffffffffffffffffffffffffffffff80000000000000000000000000000000860192508291506f8000000000000000000000000000000082800204905070010000000000000000000000000000000083810383020493909301926f800000000000000000000000000000008282020491507002000000000000000000000000000000006faaaaaaaaaaaaaaaaaaaaaaaaaaaaaaaa84900383020493909301926f800000000000000000000000000000008282020491507003000000000000000000000000000000006f9999999999999999999999999999999984900383020493909301926f800000000000000000000000000000008282020491507004000000000000000000000000000000006f9249249249249249249249249249249284900383020493909301926f800000000000000000000000000000008282020491507005000000000000000000000000000000006f8e38e38e38e38e38e38e38e38e38e38e84900383020493909301926f800000000000000000000000000000008282020491507006000000000000000000000000000000006f8ba2e8ba2e8ba2e8ba2e8ba2e8ba2e8b84900383020493909301926f800000000000000000000000000000008282020491507007000000000000000000000000000000006f89d89d89d89d89d89d89d89d89d89d8984900383020493909301926f800000000000000000000000000000008282020491507008000000000000000000000000000000006f888888888888888888888888888888888490038302049390930195945050505050565b600080808070010000000000000000000000000000000085106118f1576118cd6f80000000000000000000000000000000860461236b565b60ff8116600281900a909604956f8000000000000000000000000000000002935091505b6f800000000000000000000000000000008511156119a45750607f5b60008160ff1611156119a4576f80000000000000000000000000000000858002049450700100000000000000000000000000000000851061197d576002948590049460ff7fffffffffffffffffffffffffffffffffffffffffffffffffffffffffffffffff830116900a92909201915b7fffffffffffffffffffffffffffffffffffffffffffffffffffffffffffffffff0161190d565b6f05b9de1d10bf4103d647b0955897ba806f03f80fe03f80fe03f80fe03f80fe03f884020493505b505050919050565b6000670168244fdac780006f800000000000000000000000000000006f0fffffffffffffffffffffffffffffff84168080028290048082028390048083028490049485026710e1b3be415a00009092026705a0913f6b1e000091909102010192909181830204905080664807432bc1800002830192506f80000000000000000000000000000000828202811515611a6757fe5b04905080660c0135dca0400002830192506f80000000000000000000000000000000828202811515611a9557fe5b049050806601b707b1cdc00002830192506f80000000000000000000000000000000828202811515611ac357fe5b049050806536e0f639b80002830192506f80000000000000000000000000000000828202811515611af057fe5b04905080650618fee9f80002830192506f80000000000000000000000000000000828202811515611b1d57fe5b04905080649c197dcc0002830192506f80000000000000000000000000000000828202811515611b4957fe5b04905080640e30dce40002830192506f80000000000000000000000000000000828202811515611b7557fe5b0490508064012ebd130002830192506f80000000000000000000000000000000828202811515611ba157fe5b049050806317499f0002830192506f80000000000000000000000000000000828202811515611bcc57fe5b049050806301a9d48002830192506f80000000000000000000000000000000828202811515611bf757fe5b04905080621c638002830192506f80000000000000000000000000000000828202811515611c2157fe5b049050806201c63802830192506f80000000000000000000000000000000828202811515611c4b57fe5b04905080611ab802830192506f80000000000000000000000000000000828202811515611c7457fe5b0490508061017c02830192506f80000000000000000000000000000000828202811515611c9d57fe5b04905080601402830192506f80000000000000000000000000000000828202811515611cc557fe5b6721c3677c82b400009190049384010482016f80000000000000000000000000000000019290506f10000000000000000000000000000000851615611d2e5770018ebef9eac820ae8682b9793ac6d1e7767001c3d6a24ed82218787d624d3e5eba95f984020492505b6f20000000000000000000000000000000851615611d70577001368b2fc6f9609fe7aceb46aa619baed470018ebef9eac820ae8682b9793ac6d1e77884020492505b6f40000000000000000000000000000000851615611db1576fbc5ab1b16779be3575bd8f0520a9f21f7001368b2fc6f9609fe7aceb46aa619baed584020492505b6f80000000000000000000000000000000851615611df1576f454aaa8efe072e7f6ddbab84b40a55c96fbc5ab1b16779be3575bd8f0520a9f21e84020492505b700100000000000000000000000000000000851615611e32576f0960aadc109e7a3bf4578099615711ea6f454aaa8efe072e7f6ddbab84b40a55c584020492505b700200000000000000000000000000000000851615611e72576e2bf84208204f5977f9a8cf01fdce3d6f0960aadc109e7a3bf4578099615711d784020492505b700400000000000000000000000000000000851615611eb0576d03c6ab775dd0b95b4cbee7e65d116e2bf84208204f5977f9a8cf01fdc30784020492505b50909392505050565b60006020607f825b8160ff168360010160ff161015611f0657600260ff8484011604905084600160ff831660808110611eee57fe5b015410611efd57809250611f01565b8091505b611ec1565b84600160ff841660808110611f1757fe5b015410611f26578193506119cc565b84600160ff851660808110611f3757fe5b015410611f46578293506119cc565bfe5b6000806000849150600090508360ff168583029060020a90049150816f03442c4e6074a82f1797f72ac000000002810190508360ff168583029060020a90049150816f0116b96f757c380fb287fd0e4000000002810190508360ff168583029060020a90049150816e45ae5bdd5f0e03eca1ff439000000002810190508360ff168583029060020a90049150816e0defabf91302cd95b9ffda5000000002810190508360ff168583029060020a90049150816e02529ca9832b22439efff9b800000002810190508360ff168583029060020a90049150816d54f1cf12bd04e516b6da8800000002810190508360ff168583029060020a90049150816d0a9e39e257a09ca2d6db5100000002810190508360ff168583029060020a90049150816d012e066e7b839fa050c30900000002810190508360ff168583029060020a90049150816c1e33d7d926c329a1ad1a80000002810190508360ff168583029060020a90049150816c02bee513bdb4a6b19b5f80000002810190508360ff168583029060020a90049150816b3a9316fa79b88eccf2a0000002810190508360ff168583029060020a90049150816b048177ebe1fa81237520000002810190508360ff168583029060020a90049150816a5263fe90242dcbacf0000002810190508360ff168583029060020a90049150816a057e22099c030d9410000002810190508360ff168583029060020a90049150816957e22099c030d941000002810190508360ff168583029060020a900491508169052b6b5456997631000002810190508360ff168583029060020a9004915081684985f67696bf74800002810190508360ff168583029060020a90049150816803dea12ea99e49800002810190508360ff168583029060020a90049150816731880f2214b6e00002810190508360ff168583029060020a900491508167025bcff56eb3600002810190508360ff168583029060020a9004915081661b722e10ab100002810190508360ff168583029060020a90049150816601317c7007700002810190508360ff168583029060020a9004915081650cba84aafa0002810190508360ff168583029060020a90049150816482573a0a0002810190508360ff168583029060020a90049150816405035ad90002810190508360ff168583029060020a9004915081632f881b0002810190508360ff168583029060020a90049150816301b2934002810190508360ff168583029060020a9004915081620efc4002810190508360ff168583029060020a9004915081617fe002810190508360ff168583029060020a900491508161042002810190508360ff168583029060020a9004915081602102810190508360ff168583029060020a9004915081600102810190508360ff1660019060020a02856f0688589cc0e9505e2f2fee55800000008381151561235f57fe5b04010195945050505050565b6000808061010084101561239a575b6001841115612395576002909304926001919091019061237a565b6123d4565b5060805b60008160ff1611156123d45760ff811660020a84106123c75760ff811660020a90930492908117905b600260ff9091160461239e565b50929150505600a165627a7a72305820a2b2a4d5ffe482e243f5cebe07c032233034a45ecc91b650403be46ecaf2ecb70029",
  "source": "pragma solidity ^0.4.24;\n\nimport \"./ControllerI.sol\";\nimport \"./ERC20MainI.sol\";\nimport \"zeppelin-solidity/contracts/math/SafeMath.sol\";\nimport \"bancor-contracts/solidity/contracts/converter/BancorFormula.sol\";\n\ncontract Controller is ControllerI, BancorFormula {\n    using SafeMath for uint256;\n    uint256 public virtualBalance;\n    uint256 public virtualSupply;\n    uint32 public reserveRatio;  // represented in ppm, 1-1000000\n\n    uint32 public exponent = 2;\n    uint32 public slope = 1000;\n    event logUint256(uint256 number);\n    event logUint8(uint8 number);\n\n    event Buy(address indexed memeMarket, address indexed to, uint256 poolBalance, uint tokenSupply, uint256 amountTokens, uint256 totalCostEth);\n    event Sell(address indexed memeMarket, address indexed from, uint256 poolBalance, uint tokenSupply, uint256 amountTokens, uint256 returnedEth);\n\n    constructor (uint32 _reserveRatio, uint256 _virtualSupply, uint256 _virtualBalance) public {\n        reserveRatio = _reserveRatio;\n        virtualSupply = _virtualSupply;\n        virtualBalance = _virtualBalance;\n    }\n\n\n    function getBuy(uint256 totalSupply, uint256 poolBalance, uint256 buyValue) public view returns(uint256) {\n        return calculatePurchaseReturn(\n            safeAdd(totalSupply, virtualSupply),\n            safeAdd(poolBalance, virtualBalance),\n            reserveRatio,\n            buyValue);\n    }\n\n\n    function getSell(uint256 totalSupply, uint256 poolBalance, uint256 sellAmount) public view returns(uint256) {\n        return calculateSaleReturn(\n            safeAdd(totalSupply, virtualSupply),\n            safeAdd(poolBalance, virtualBalance),\n            reserveRatio,\n            sellAmount);\n    }\n\n    function buy(address memeMarket, address sender) public payable returns(bool) {\n        require(msg.value > 0);\n        uint256 totalSupply = ERC20MainI(memeMarket).totalSupply();\n        uint256 poolBalance = ERC20MainI(memeMarket).poolBalance();\n        uint256 tokens = getBuy(totalSupply, poolBalance, msg.value);\n        require(tokens > 0);\n        require(ERC20MainI(memeMarket).mint(sender, tokens));\n\n        ERC20MainI(memeMarket).setPoolBalance(poolBalance.add(msg.value));\n        memeMarket.transfer(msg.value);\n        emit Buy(memeMarket, sender, ERC20MainI(memeMarket).poolBalance(), ERC20MainI(memeMarket).totalSupply(), tokens, msg.value);\n        return true;\n    }\n\n\n    /**\n    * @dev sell Sell ClubTokens for Eth\n    * @param sellAmount The amount of tokens to sell\n    */\n    function sell(address memeMarket, uint256 sellAmount) public returns(bool) {\n        require(sellAmount > 0);\n        require(ERC20MainI(memeMarket).balanceOf(msg.sender) >= sellAmount);\n        uint256 totalSupply = ERC20MainI(memeMarket).totalSupply();\n        uint256 poolBalance = ERC20MainI(memeMarket).poolBalance();\n        uint256 saleReturn = getSell(totalSupply, poolBalance, sellAmount);\n\n        require(saleReturn > 0);\n        require(saleReturn <= poolBalance);\n        require(ERC20MainI(memeMarket).burn(msg.sender, sellAmount));\n        ERC20MainI(memeMarket).setPoolBalance(poolBalance.sub(saleReturn));\n        require(ERC20MainI(memeMarket).sendEth(msg.sender, saleReturn));\n\n        emit Sell(memeMarket, msg.sender, ERC20MainI(memeMarket).poolBalance(), ERC20MainI(memeMarket).totalSupply(), sellAmount, saleReturn);\n        return true;\n    }\n\n    function initMeme(\n        address sender,\n        string _name,\n        string _symbol,\n        uint8 hash_function,\n        uint8 size,\n        bytes32 _memehash\n    ) public payable returns (bool) {\n        if (msg.value > 0) {\n            require(buy(msg.sender, sender));\n        }\n        //@TODO if this is called with no numTokens and msg.value, the ether gets trapped in controller\n        return true;\n    }\n}\n",
  "sourcePath": "/Users/billy/GitHub/memelordz/meme-lordz/contracts/Controller.sol",
  "compiler": {
    "name": "solc",
    "version": "0.4.24+commit.e67f0147.Emscripten.clang"
  },
  "schemaVersion": "1.0.1",
  "updatedAt": "2021-12-02T20:05:46.615Z"
}