{
  "contractName": "ControllerPointer",
  "abi": [
    {
      "constant": false,
      "inputs": [],
      "name": "renounceOwnership",
      "outputs": [],
      "payable": false,
      "stateMutability": "nonpayable",
      "type": "function"
    },
    {
      "constant": true,
      "inputs": [],
      "name": "owner",
      "outputs": [
        {
          "name": "",
          "type": "address"
        }
      ],
      "payable": false,
      "stateMutability": "view",
      "type": "function"
    },
    {
      "constant": true,
      "inputs": [],
      "name": "erc20Set",
      "outputs": [
        {
          "name": "",
          "type": "bool"
        }
      ],
      "payable": false,
      "stateMutability": "view",
      "type": "function"
    },
    {
      "constant": false,
      "inputs": [
        {
          "name": "_newOwner",
          "type": "address"
        }
      ],
      "name": "transferOwnership",
      "outputs": [],
      "payable": false,
      "stateMutability": "nonpayable",
      "type": "function"
    },
    {
      "inputs": [
        {
          "name": "_controller",
          "type": "address"
        }
      ],
      "payable": false,
      "stateMutability": "nonpayable",
      "type": "constructor"
    },
    {
      "anonymous": false,
      "inputs": [
        {
          "indexed": true,
          "name": "previousOwner",
          "type": "address"
        }
      ],
      "name": "OwnershipRenounced",
      "type": "event"
    },
    {
      "anonymous": false,
      "inputs": [
        {
          "indexed": true,
          "name": "previousOwner",
          "type": "address"
        },
        {
          "indexed": true,
          "name": "newOwner",
          "type": "address"
        }
      ],
      "name": "OwnershipTransferred",
      "type": "event"
    },
    {
      "constant": true,
      "inputs": [],
      "name": "getController",
      "outputs": [
        {
          "name": "",
          "type": "address"
        }
      ],
      "payable": false,
      "stateMutability": "view",
      "type": "function"
    },
    {
      "constant": false,
      "inputs": [
        {
          "name": "_controller",
          "type": "address"
        }
      ],
      "name": "setController",
      "outputs": [],
      "payable": false,
      "stateMutability": "nonpayable",
      "type": "function"
    },
    {
      "constant": true,
      "inputs": [],
      "name": "getERC20Main",
      "outputs": [
        {
          "name": "",
          "type": "address"
        }
      ],
      "payable": false,
      "stateMutability": "view",
      "type": "function"
    },
    {
      "constant": false,
      "inputs": [
        {
          "name": "_erc20Main",
          "type": "address"
        }
      ],
      "name": "setERC20Main",
      "outputs": [],
      "payable": false,
      "stateMutability": "nonpayable",
      "type": "function"
    }
  ],
  "bytecode": "0x608060405234801561001057600080fd5b5060405160208061054683398101604052516000805433600160a060020a0319918216811790911617905561004d81640100000000610053810204565b5061008c565b600054600160a060020a0316331461006a57600080fd5b60018054600160a060020a031916600160a060020a0392909216919091179055565b6104ab8061009b6000396000f30060806040526004361061008d5763ffffffff7c01000000000000000000000000000000000000000000000000000000006000350416633018205f8114610092578063715018a6146100d05780637f0f485a146100e75780638da5cb5b1461011557806392eefe9b1461012a578063ade3cd7914610158578063c75cdaa114610181578063f2fde38b14610196575b600080fd5b34801561009e57600080fd5b506100a76101c4565b6040805173ffffffffffffffffffffffffffffffffffffffff9092168252519081900360200190f35b3480156100dc57600080fd5b506100e56101e0565b005b3480156100f357600080fd5b506100e573ffffffffffffffffffffffffffffffffffffffff60043516610271565b34801561012157600080fd5b506100a76102dc565b34801561013657600080fd5b506100e573ffffffffffffffffffffffffffffffffffffffff600435166102f8565b34801561016457600080fd5b5061016d610363565b604080519115158252519081900360200190f35b34801561018d57600080fd5b506100a7610384565b3480156101a257600080fd5b506100e573ffffffffffffffffffffffffffffffffffffffff600435166103a0565b60015473ffffffffffffffffffffffffffffffffffffffff1690565b60005473ffffffffffffffffffffffffffffffffffffffff16331461020457600080fd5b6000805460405173ffffffffffffffffffffffffffffffffffffffff909116917ff8df31144d9c2f0f6b59d69b8b98abd5459d07f2742c4df920b25aae33c6482091a2600080547fffffffffffffffffffffffff0000000000000000000000000000000000000000169055565b60005473ffffffffffffffffffffffffffffffffffffffff16331461029557600080fd5b600280547fffffffffffffffffffffffff00000000000000000000000000000000000000001673ffffffffffffffffffffffffffffffffffffffff92909216919091179055565b60005473ffffffffffffffffffffffffffffffffffffffff1681565b60005473ffffffffffffffffffffffffffffffffffffffff16331461031c57600080fd5b600180547fffffffffffffffffffffffff00000000000000000000000000000000000000001673ffffffffffffffffffffffffffffffffffffffff92909216919091179055565b60025474010000000000000000000000000000000000000000900460ff1681565b60025473ffffffffffffffffffffffffffffffffffffffff1690565b60005473ffffffffffffffffffffffffffffffffffffffff1633146103c457600080fd5b6103cd816103d0565b50565b73ffffffffffffffffffffffffffffffffffffffff811615156103f257600080fd5b6000805460405173ffffffffffffffffffffffffffffffffffffffff808516939216917f8be0079c531659141344cd1fd0a4f28419497f9722a3daafe3b4186f6b6457e091a3600080547fffffffffffffffffffffffff00000000000000000000000000000000000000001673ffffffffffffffffffffffffffffffffffffffff929092169190911790555600a165627a7a72305820d64786264e456b617d6c417bf2ee854e210992618826a66a8ab889a877a227ff0029",
  "source": "pragma solidity ^0.4.24;\n\nimport \"zeppelin-solidity/contracts/ownership/Ownable.sol\";\n\ncontract ControllerPointer is Ownable {\n    address controller;\n    address ERC20Main;\n    bool public erc20Set;\n\n    constructor(address _controller) {\n        owner = msg.sender;\n        setController(_controller);\n    }\n    function getController() public view returns(address) {\n        return controller;\n    }\n    function setController(address _controller) public onlyOwner {\n        controller = _controller;\n    }\n    function getERC20Main() public view returns(address) {\n        return ERC20Main;\n    }\n    function setERC20Main(address _erc20Main) public onlyOwner {\n        // @TODO put this back in\n        /* require(!erc20Set); */\n        ERC20Main = _erc20Main;\n        /* erc20Set = true; */\n    }\n}\n",
  "sourcePath": "/Users/billy/GitHub/memelordz/meme-lordz/contracts/ControllerPointer.sol",
  "compiler": {
    "name": "solc",
    "version": "0.4.24+commit.e67f0147.Emscripten.clang"
  },
  "schemaVersion": "1.0.1",
  "updatedAt": "2021-12-02T20:06:10.952Z"
}