{
  "contractName": "Erc20Main",
  "abi": [
    {
      "constant": true,
      "inputs": [],
      "name": "name",
      "outputs": [
        {
          "name": "",
          "type": "string"
        }
      ],
      "payable": false,
      "stateMutability": "view",
      "type": "function"
    },
    {
      "constant": false,
      "inputs": [
        {
          "name": "_spender",
          "type": "address"
        },
        {
          "name": "_value",
          "type": "uint256"
        }
      ],
      "name": "approve",
      "outputs": [
        {
          "name": "",
          "type": "bool"
        }
      ],
      "payable": false,
      "stateMutability": "nonpayable",
      "type": "function"
    },
    {
      "constant": true,
      "inputs": [],
      "name": "totalSupply",
      "outputs": [
        {
          "name": "",
          "type": "uint256"
        }
      ],
      "payable": false,
      "stateMutability": "view",
      "type": "function"
    },
    {
      "constant": false,
      "inputs": [
        {
          "name": "_from",
          "type": "address"
        },
        {
          "name": "_to",
          "type": "address"
        },
        {
          "name": "_value",
          "type": "uint256"
        }
      ],
      "name": "transferFrom",
      "outputs": [
        {
          "name": "",
          "type": "bool"
        }
      ],
      "payable": false,
      "stateMutability": "nonpayable",
      "type": "function"
    },
    {
      "constant": true,
      "inputs": [],
      "name": "decimals",
      "outputs": [
        {
          "name": "",
          "type": "uint8"
        }
      ],
      "payable": false,
      "stateMutability": "view",
      "type": "function"
    },
    {
      "constant": true,
      "inputs": [],
      "name": "exponent",
      "outputs": [
        {
          "name": "",
          "type": "uint8"
        }
      ],
      "payable": false,
      "stateMutability": "view",
      "type": "function"
    },
    {
      "constant": false,
      "inputs": [
        {
          "name": "_spender",
          "type": "address"
        },
        {
          "name": "_subtractedValue",
          "type": "uint256"
        }
      ],
      "name": "decreaseApproval",
      "outputs": [
        {
          "name": "",
          "type": "bool"
        }
      ],
      "payable": false,
      "stateMutability": "nonpayable",
      "type": "function"
    },
    {
      "constant": true,
      "inputs": [
        {
          "name": "_owner",
          "type": "address"
        }
      ],
      "name": "balanceOf",
      "outputs": [
        {
          "name": "",
          "type": "uint256"
        }
      ],
      "payable": false,
      "stateMutability": "view",
      "type": "function"
    },
    {
      "constant": true,
      "inputs": [],
      "name": "slope",
      "outputs": [
        {
          "name": "",
          "type": "uint32"
        }
      ],
      "payable": false,
      "stateMutability": "view",
      "type": "function"
    },
    {
      "constant": true,
      "inputs": [],
      "name": "symbol",
      "outputs": [
        {
          "name": "",
          "type": "string"
        }
      ],
      "payable": false,
      "stateMutability": "view",
      "type": "function"
    },
    {
      "constant": true,
      "inputs": [],
      "name": "poolBalance",
      "outputs": [
        {
          "name": "",
          "type": "uint256"
        }
      ],
      "payable": false,
      "stateMutability": "view",
      "type": "function"
    },
    {
      "constant": false,
      "inputs": [
        {
          "name": "_to",
          "type": "address"
        },
        {
          "name": "_value",
          "type": "uint256"
        }
      ],
      "name": "transfer",
      "outputs": [
        {
          "name": "",
          "type": "bool"
        }
      ],
      "payable": false,
      "stateMutability": "nonpayable",
      "type": "function"
    },
    {
      "constant": true,
      "inputs": [],
      "name": "finalized",
      "outputs": [
        {
          "name": "",
          "type": "bool"
        }
      ],
      "payable": false,
      "stateMutability": "view",
      "type": "function"
    },
    {
      "constant": false,
      "inputs": [
        {
          "name": "_spender",
          "type": "address"
        },
        {
          "name": "_addedValue",
          "type": "uint256"
        }
      ],
      "name": "increaseApproval",
      "outputs": [
        {
          "name": "",
          "type": "bool"
        }
      ],
      "payable": false,
      "stateMutability": "nonpayable",
      "type": "function"
    },
    {
      "constant": true,
      "inputs": [
        {
          "name": "_owner",
          "type": "address"
        },
        {
          "name": "_spender",
          "type": "address"
        }
      ],
      "name": "allowance",
      "outputs": [
        {
          "name": "",
          "type": "uint256"
        }
      ],
      "payable": false,
      "stateMutability": "view",
      "type": "function"
    },
    {
      "constant": true,
      "inputs": [],
      "name": "memehash",
      "outputs": [
        {
          "name": "",
          "type": "string"
        }
      ],
      "payable": false,
      "stateMutability": "view",
      "type": "function"
    },
    {
      "anonymous": false,
      "inputs": [
        {
          "indexed": true,
          "name": "to",
          "type": "address"
        },
        {
          "indexed": false,
          "name": "amount",
          "type": "uint256"
        },
        {
          "indexed": false,
          "name": "totalCost",
          "type": "uint256"
        }
      ],
      "name": "Mint",
      "type": "event"
    },
    {
      "anonymous": false,
      "inputs": [
        {
          "indexed": true,
          "name": "burner",
          "type": "address"
        },
        {
          "indexed": false,
          "name": "amount",
          "type": "uint256"
        },
        {
          "indexed": false,
          "name": "reward",
          "type": "uint256"
        }
      ],
      "name": "Burn",
      "type": "event"
    },
    {
      "anonymous": false,
      "inputs": [
        {
          "indexed": false,
          "name": "__memehash",
          "type": "string"
        }
      ],
      "name": "Inited",
      "type": "event"
    },
    {
      "anonymous": false,
      "inputs": [],
      "name": "Finalized",
      "type": "event"
    },
    {
      "anonymous": false,
      "inputs": [
        {
          "indexed": true,
          "name": "owner",
          "type": "address"
        },
        {
          "indexed": true,
          "name": "spender",
          "type": "address"
        },
        {
          "indexed": false,
          "name": "value",
          "type": "uint256"
        }
      ],
      "name": "Approval",
      "type": "event"
    },
    {
      "anonymous": false,
      "inputs": [
        {
          "indexed": true,
          "name": "from",
          "type": "address"
        },
        {
          "indexed": true,
          "name": "to",
          "type": "address"
        },
        {
          "indexed": false,
          "name": "value",
          "type": "uint256"
        }
      ],
      "name": "Transfer",
      "type": "event"
    },
    {
      "constant": false,
      "inputs": [
        {
          "name": "_name",
          "type": "string"
        },
        {
          "name": "_symbol",
          "type": "string"
        },
        {
          "name": "_memehash",
          "type": "string"
        }
      ],
      "name": "initMeme",
      "outputs": [],
      "payable": true,
      "stateMutability": "payable",
      "type": "function"
    },
    {
      "constant": false,
      "inputs": [
        {
          "name": "_slope",
          "type": "uint32"
        }
      ],
      "name": "setSlope",
      "outputs": [
        {
          "name": "",
          "type": "bool"
        }
      ],
      "payable": false,
      "stateMutability": "nonpayable",
      "type": "function"
    },
    {
      "constant": false,
      "inputs": [
        {
          "name": "_exponent",
          "type": "uint8"
        }
      ],
      "name": "setExponent",
      "outputs": [
        {
          "name": "",
          "type": "bool"
        }
      ],
      "payable": false,
      "stateMutability": "nonpayable",
      "type": "function"
    },
    {
      "constant": false,
      "inputs": [],
      "name": "finalize",
      "outputs": [
        {
          "name": "",
          "type": "bool"
        }
      ],
      "payable": false,
      "stateMutability": "nonpayable",
      "type": "function"
    },
    {
      "constant": false,
      "inputs": [
        {
          "name": "numTokens",
          "type": "uint256"
        }
      ],
      "name": "priceToMint",
      "outputs": [
        {
          "name": "",
          "type": "uint256"
        }
      ],
      "payable": false,
      "stateMutability": "nonpayable",
      "type": "function"
    },
    {
      "constant": false,
      "inputs": [
        {
          "name": "numTokens",
          "type": "uint256"
        }
      ],
      "name": "rewardForBurn",
      "outputs": [
        {
          "name": "",
          "type": "uint256"
        }
      ],
      "payable": false,
      "stateMutability": "nonpayable",
      "type": "function"
    },
    {
      "constant": false,
      "inputs": [
        {
          "name": "numTokens",
          "type": "uint256"
        }
      ],
      "name": "mint",
      "outputs": [],
      "payable": true,
      "stateMutability": "payable",
      "type": "function"
    },
    {
      "constant": false,
      "inputs": [
        {
          "name": "numTokens",
          "type": "uint256"
        }
      ],
      "name": "burn",
      "outputs": [],
      "payable": false,
      "stateMutability": "nonpayable",
      "type": "function"
    }
  ],
  "bytecode": "0x608060405234801561001057600080fd5b50611fc5806100206000396000f30060806040526004361061013e576000357c0100000000000000000000000000000000000000000000000000000000900463ffffffff16806306fdde0314610143578063095ea7b3146101d357806318160ddd1461023857806323b872dd14610263578063313ce567146102e857806342966c68146103195780634bb278f31461034657806352f6ee5814610375578063564f2dd7146103a657806366188463146103ee57806370a082311461045357806383caf275146104aa578063895135ed146104e157806395d89b411461052c57806396365d44146105bc5780639a2c28df146105e7578063a0712d68146106cf578063a9059cbb146106ef578063b3f05b9714610754578063b9d3674314610783578063c544682b146107c4578063d73dd62314610805578063dd62ed3e1461086a578063f1eec401146108e1575b600080fd5b34801561014f57600080fd5b50610158610971565b6040518080602001828103825283818151815260200191508051906020019080838360005b8381101561019857808201518184015260208101905061017d565b50505050905090810190601f1680156101c55780820380516001836020036101000a031916815260200191505b509250505060405180910390f35b3480156101df57600080fd5b5061021e600480360381019080803573ffffffffffffffffffffffffffffffffffffffff16906020019092919080359060200190929190505050610a0f565b604051808215151515815260200191505060405180910390f35b34801561024457600080fd5b5061024d610b01565b6040518082815260200191505060405180910390f35b34801561026f57600080fd5b506102ce600480360381019080803573ffffffffffffffffffffffffffffffffffffffff169060200190929190803573ffffffffffffffffffffffffffffffffffffffff16906020019092919080359060200190929190505050610b0b565b604051808215151515815260200191505060405180910390f35b3480156102f457600080fd5b506102fd610ec6565b604051808260ff1660ff16815260200191505060405180910390f35b34801561032557600080fd5b5061034460048036038101908080359060200190929190505050610ed9565b005b34801561035257600080fd5b5061035b61109d565b604051808215151515815260200191505060405180910390f35b34801561038157600080fd5b5061038a611109565b604051808260ff1660ff16815260200191505060405180910390f35b3480156103b257600080fd5b506103d4600480360381019080803560ff16906020019092919050505061111c565b604051808215151515815260200191505060405180910390f35b3480156103fa57600080fd5b50610439600480360381019080803573ffffffffffffffffffffffffffffffffffffffff1690602001909291908035906020019092919050505061115e565b604051808215151515815260200191505060405180910390f35b34801561045f57600080fd5b50610494600480360381019080803573ffffffffffffffffffffffffffffffffffffffff1690602001909291905050506113f0565b6040518082815260200191505060405180910390f35b3480156104b657600080fd5b506104bf611438565b604051808263ffffffff1663ffffffff16815260200191505060405180910390f35b3480156104ed57600080fd5b50610512600480360381019080803563ffffffff16906020019092919050505061144e565b604051808215151515815260200191505060405180910390f35b34801561053857600080fd5b50610541611496565b6040518080602001828103825283818151815260200191508051906020019080838360005b83811015610581578082015181840152602081019050610566565b50505050905090810190601f1680156105ae5780820380516001836020036101000a031916815260200191505b509250505060405180910390f35b3480156105c857600080fd5b506105d1611534565b6040518082815260200191505060405180910390f35b6106cd600480360381019080803590602001908201803590602001908080601f0160208091040260200160405190810160405280939291908181526020018383808284378201915050505050509192919290803590602001908201803590602001908080601f0160208091040260200160405190810160405280939291908181526020018383808284378201915050505050509192919290803590602001908201803590602001908080601f016020809104026020016040519081016040528093929190818152602001838380828437820191505050505050919291929050505061153a565b005b6106ed600480360381019080803590602001909291905050506116ee565b005b3480156106fb57600080fd5b5061073a600480360381019080803573ffffffffffffffffffffffffffffffffffffffff1690602001909291908035906020019092919050505061187f565b604051808215151515815260200191505060405180910390f35b34801561076057600080fd5b50610769611a9f565b604051808215151515815260200191505060405180910390f35b34801561078f57600080fd5b506107ae60048036038101908080359060200190929190505050611ab2565b6040518082815260200191505060405180910390f35b3480156107d057600080fd5b506107ef60048036038101908080359060200190929190505050611aec565b6040518082815260200191505060405180910390f35b34801561081157600080fd5b50610850600480360381019080803573ffffffffffffffffffffffffffffffffffffffff16906020019092919080359060200190929190505050611b26565b604051808215151515815260200191505060405180910390f35b34801561087657600080fd5b506108cb600480360381019080803573ffffffffffffffffffffffffffffffffffffffff169060200190929190803573ffffffffffffffffffffffffffffffffffffffff169060200190929190505050611d22565b6040518082815260200191505060405180910390f35b3480156108ed57600080fd5b506108f6611da9565b6040518080602001828103825283818151815260200191508051906020019080838360005b8381101561093657808201518184015260208101905061091b565b50505050905090810190601f1680156109635780820380516001836020036101000a031916815260200191505b509250505060405180910390f35b60038054600181600116156101000203166002900480601f016020809104026020016040519081016040528092919081815260200182805460018160011615610100020316600290048015610a075780601f106109dc57610100808354040283529160200191610a07565b820191906000526020600020905b8154815290600101906020018083116109ea57829003601f168201915b505050505081565b600081600260003373ffffffffffffffffffffffffffffffffffffffff1673ffffffffffffffffffffffffffffffffffffffff16815260200190815260200160002060008573ffffffffffffffffffffffffffffffffffffffff1673ffffffffffffffffffffffffffffffffffffffff168152602001908152602001600020819055508273ffffffffffffffffffffffffffffffffffffffff163373ffffffffffffffffffffffffffffffffffffffff167f8c5be1e5ebec7d5bd14f71427d1e84f3dd0314c0f7b2291e5b200ac8c7c3b925846040518082815260200191505060405180910390a36001905092915050565b6000600154905090565b60008060008573ffffffffffffffffffffffffffffffffffffffff1673ffffffffffffffffffffffffffffffffffffffff168152602001908152602001600020548211151515610b5a57600080fd5b600260008573ffffffffffffffffffffffffffffffffffffffff1673ffffffffffffffffffffffffffffffffffffffff16815260200190815260200160002060003373ffffffffffffffffffffffffffffffffffffffff1673ffffffffffffffffffffffffffffffffffffffff168152602001908152602001600020548211151515610be557600080fd5b600073ffffffffffffffffffffffffffffffffffffffff168373ffffffffffffffffffffffffffffffffffffffff1614151515610c2157600080fd5b610c72826000808773ffffffffffffffffffffffffffffffffffffffff1673ffffffffffffffffffffffffffffffffffffffff16815260200190815260200160002054611e4790919063ffffffff16565b6000808673ffffffffffffffffffffffffffffffffffffffff1673ffffffffffffffffffffffffffffffffffffffff16815260200190815260200160002081905550610d05826000808673ffffffffffffffffffffffffffffffffffffffff1673ffffffffffffffffffffffffffffffffffffffff16815260200190815260200160002054611e6090919063ffffffff16565b6000808573ffffffffffffffffffffffffffffffffffffffff1673ffffffffffffffffffffffffffffffffffffffff16815260200190815260200160002081905550610dd682600260008773ffffffffffffffffffffffffffffffffffffffff1673ffffffffffffffffffffffffffffffffffffffff16815260200190815260200160002060003373ffffffffffffffffffffffffffffffffffffffff1673ffffffffffffffffffffffffffffffffffffffff16815260200190815260200160002054611e4790919063ffffffff16565b600260008673ffffffffffffffffffffffffffffffffffffffff1673ffffffffffffffffffffffffffffffffffffffff16815260200190815260200160002060003373ffffffffffffffffffffffffffffffffffffffff1673ffffffffffffffffffffffffffffffffffffffff168152602001908152602001600020819055508273ffffffffffffffffffffffffffffffffffffffff168473ffffffffffffffffffffffffffffffffffffffff167fddf252ad1be2c89b69c2b068fc378daa952ba7f163c4a11628f55a4df523b3ef846040518082815260200191505060405180910390a3600190509392505050565b600560009054906101000a900460ff1681565b6000816000803373ffffffffffffffffffffffffffffffffffffffff1673ffffffffffffffffffffffffffffffffffffffff1681526020019081526020016000205410151515610f2857600080fd5b610f3182611aec565b9050610f4882600154611e4790919063ffffffff16565b600181905550610f9f826000803373ffffffffffffffffffffffffffffffffffffffff1673ffffffffffffffffffffffffffffffffffffffff16815260200190815260200160002054611e4790919063ffffffff16565b6000803373ffffffffffffffffffffffffffffffffffffffff1673ffffffffffffffffffffffffffffffffffffffff16815260200190815260200160002081905550610ff681600654611e4790919063ffffffff16565b6006819055503373ffffffffffffffffffffffffffffffffffffffff166108fc829081150290604051600060405180830381858888f19350505050158015611042573d6000803e3d6000fd5b503373ffffffffffffffffffffffffffffffffffffffff167f49995e5dd6158cf69ad3e9777c46755a1a826a446c6416992167462dad033b2a8383604051808381526020018281526020019250505060405180910390a25050565b6000600760009054906101000a900460ff161515156110bb57600080fd5b6001600760006101000a81548160ff0219169083151502179055507f6823b073d48d6e3a7d385eeb601452d680e74bb46afe3255a7d778f3a9b1768160405160405180910390a16001905090565b600560019054906101000a900460ff1681565b6000600760009054906101000a900460ff1615151561113a57600080fd5b81600560016101000a81548160ff021916908360ff16021790555060019050919050565b600080600260003373ffffffffffffffffffffffffffffffffffffffff1673ffffffffffffffffffffffffffffffffffffffff16815260200190815260200160002060008573ffffffffffffffffffffffffffffffffffffffff1673ffffffffffffffffffffffffffffffffffffffff1681526020019081526020016000205490508083101515611270576000600260003373ffffffffffffffffffffffffffffffffffffffff1673ffffffffffffffffffffffffffffffffffffffff16815260200190815260200160002060008673ffffffffffffffffffffffffffffffffffffffff1673ffffffffffffffffffffffffffffffffffffffff16815260200190815260200160002081905550611304565b6112838382611e4790919063ffffffff16565b600260003373ffffffffffffffffffffffffffffffffffffffff1673ffffffffffffffffffffffffffffffffffffffff16815260200190815260200160002060008673ffffffffffffffffffffffffffffffffffffffff1673ffffffffffffffffffffffffffffffffffffffff168152602001908152602001600020819055505b8373ffffffffffffffffffffffffffffffffffffffff163373ffffffffffffffffffffffffffffffffffffffff167f8c5be1e5ebec7d5bd14f71427d1e84f3dd0314c0f7b2291e5b200ac8c7c3b925600260003373ffffffffffffffffffffffffffffffffffffffff1673ffffffffffffffffffffffffffffffffffffffff16815260200190815260200160002060008873ffffffffffffffffffffffffffffffffffffffff1673ffffffffffffffffffffffffffffffffffffffff168152602001908152602001600020546040518082815260200191505060405180910390a3600191505092915050565b60008060008373ffffffffffffffffffffffffffffffffffffffff1673ffffffffffffffffffffffffffffffffffffffff168152602001908152602001600020549050919050565b600560029054906101000a900463ffffffff1681565b6000600760009054906101000a900460ff1615151561146c57600080fd5b81600560026101000a81548163ffffffff021916908363ffffffff16021790555060019050919050565b60048054600181600116156101000203166002900480601f01602080910402602001604051908101604052809291908181526020018280546001816001161561010002031660029004801561152c5780601f106115015761010080835404028352916020019161152c565b820191906000526020600020905b81548152906001019060200180831161150f57829003601f168201915b505050505081565b60065481565b600960009054906101000a900460ff1615151561155657600080fd5b600060065414801561156a57506000600154145b151561157557600080fd5b826003908051906020019061158b929190611ef4565b5081600490805190602001906115a2929190611ef4565b506012600560006101000a81548160ff021916908360ff1602179055506001600560016101000a81548160ff021916908360ff16021790555080600890805190602001906115f1929190611ef4565b506001600560026101000a81548163ffffffff021916908363ffffffff1602179055506001600960006101000a81548160ff0219169083151502179055507f94ce80f153bd62902810c2950f27043e690c909cbbf68052ffc90a66d490d5a6600860405180806020018281038252838181546001816001161561010002031660029004815260200191508054600181600116156101000203166002900480156116db5780601f106116b0576101008083540402835291602001916116db565b820191906000526020600020905b8154815290600101906020018083116116be57829003601f168201915b50509250505060405180910390a1505050565b60006116f982611ab2565b905080341015151561170a57600080fd5b61171f82600154611e6090919063ffffffff16565b600181905550611776826000803373ffffffffffffffffffffffffffffffffffffffff1673ffffffffffffffffffffffffffffffffffffffff16815260200190815260200160002054611e6090919063ffffffff16565b6000803373ffffffffffffffffffffffffffffffffffffffff1673ffffffffffffffffffffffffffffffffffffffff168152602001908152602001600020819055506117cd81600654611e6090919063ffffffff16565b60068190555080341115611825573373ffffffffffffffffffffffffffffffffffffffff166108fc8234039081150290604051600060405180830381858888f19350505050158015611823573d6000803e3d6000fd5b505b3373ffffffffffffffffffffffffffffffffffffffff167f4c209b5fc8ad50758f13e2e1088ba56a560dff690a1c6fef26394f4c03821c4f8383604051808381526020018281526020019250505060405180910390a25050565b60008060003373ffffffffffffffffffffffffffffffffffffffff1673ffffffffffffffffffffffffffffffffffffffff1681526020019081526020016000205482111515156118ce57600080fd5b600073ffffffffffffffffffffffffffffffffffffffff168373ffffffffffffffffffffffffffffffffffffffff161415151561190a57600080fd5b61195b826000803373ffffffffffffffffffffffffffffffffffffffff1673ffffffffffffffffffffffffffffffffffffffff16815260200190815260200160002054611e4790919063ffffffff16565b6000803373ffffffffffffffffffffffffffffffffffffffff1673ffffffffffffffffffffffffffffffffffffffff168152602001908152602001600020819055506119ee826000808673ffffffffffffffffffffffffffffffffffffffff1673ffffffffffffffffffffffffffffffffffffffff16815260200190815260200160002054611e6090919063ffffffff16565b6000808573ffffffffffffffffffffffffffffffffffffffff1673ffffffffffffffffffffffffffffffffffffffff168152602001908152602001600020819055508273ffffffffffffffffffffffffffffffffffffffff163373ffffffffffffffffffffffffffffffffffffffff167fddf252ad1be2c89b69c2b068fc378daa952ba7f163c4a11628f55a4df523b3ef846040518082815260200191505060405180910390a36001905092915050565b600760009054906101000a900460ff1681565b6000611ae5600654611ad7611ad285600154611e6090919063ffffffff16565b611e7c565b611e4790919063ffffffff16565b9050919050565b6000611b1f611b0e611b0984600154611e4790919063ffffffff16565b611e7c565b600654611e4790919063ffffffff16565b9050919050565b6000611bb782600260003373ffffffffffffffffffffffffffffffffffffffff1673ffffffffffffffffffffffffffffffffffffffff16815260200190815260200160002060008673ffffffffffffffffffffffffffffffffffffffff1673ffffffffffffffffffffffffffffffffffffffff16815260200190815260200160002054611e6090919063ffffffff16565b600260003373ffffffffffffffffffffffffffffffffffffffff1673ffffffffffffffffffffffffffffffffffffffff16815260200190815260200160002060008573ffffffffffffffffffffffffffffffffffffffff1673ffffffffffffffffffffffffffffffffffffffff168152602001908152602001600020819055508273ffffffffffffffffffffffffffffffffffffffff163373ffffffffffffffffffffffffffffffffffffffff167f8c5be1e5ebec7d5bd14f71427d1e84f3dd0314c0f7b2291e5b200ac8c7c3b925600260003373ffffffffffffffffffffffffffffffffffffffff1673ffffffffffffffffffffffffffffffffffffffff16815260200190815260200160002060008773ffffffffffffffffffffffffffffffffffffffff1673ffffffffffffffffffffffffffffffffffffffff168152602001908152602001600020546040518082815260200191505060405180910390a36001905092915050565b6000600260008473ffffffffffffffffffffffffffffffffffffffff1673ffffffffffffffffffffffffffffffffffffffff16815260200190815260200160002060008373ffffffffffffffffffffffffffffffffffffffff1673ffffffffffffffffffffffffffffffffffffffff16815260200190815260200160002054905092915050565b60088054600181600116156101000203166002900480601f016020809104026020016040519081016040528092919081815260200182805460018160011615610100020316600290048015611e3f5780601f10611e1457610100808354040283529160200191611e3f565b820191906000526020600020905b815481529060010190602001808311611e2257829003601f168201915b505050505081565b6000828211151515611e5557fe5b818303905092915050565b60008183019050828110151515611e7357fe5b80905092915050565b6000806001600560019054906101000a900460ff160160ff169050611ed6600560029054906101000a900463ffffffff1663ffffffff16611ec88384870a611ede90919063ffffffff16565b611ede90919063ffffffff16565b915050919050565b60008183811515611eeb57fe5b04905092915050565b828054600181600116156101000203166002900490600052602060002090601f016020900481019282601f10611f3557805160ff1916838001178555611f63565b82800160010185558215611f63579182015b82811115611f62578251825591602001919060010190611f47565b5b509050611f709190611f74565b5090565b611f9691905b80821115611f92576000816000905550600101611f7a565b5090565b905600a165627a7a72305820da4bc50f78ec9b0a384cb83cd4f3a11297fda42f24ac716e64212e3ce3c9973a0029",
  "source": "import \"zeppelin-solidity/contracts/token/ERC20/StandardToken.sol\";\nimport \"zeppelin-solidity/contracts/math/SafeMath.sol\";\n\ncontract Erc20Main is StandardToken {\n  string public name;\n  string public symbol;\n  uint8 public decimals;\n  uint8 public exponent;\n  uint32 public slope;\n  uint256 public poolBalance;\n  bool public finalized;\n  string public memehash;\n  bool inited;\n\n  // struct Multihash {\n  //   bytes32 hash;\n  //   uint8 hash_function;\n  //   uint8 size;\n  // }\n\n  event Mint(address indexed to, uint256 amount, uint256 totalCost);\n  event Burn(address indexed burner, uint256 amount, uint256 reward);\n  event Inited(string __memehash);\n  event Finalized();\n\n  using SafeMath for uint256;\n\n  function initMeme(\n    string _name,\n    string _symbol,\n    string _memehash\n  ) public \n    payable {\n    require(!inited);\n    require(poolBalance == 0 && totalSupply_ == 0);\n    name = _name;\n    symbol = _symbol;\n    decimals = 18;\n    exponent = 1;\n    memehash = _memehash;\n    slope = 1;\n    inited = true;\n    Inited(memehash);\n  }\n\n  function setSlope(uint32 _slope) public returns (bool) {\n    require(!finalized);\n    slope = _slope;\n    return true;\n  }\n\n  function setExponent(uint8 _exponent) public returns (bool) {\n    require(!finalized);\n    exponent = _exponent;\n    return true;\n  }\n\n  function finalize() public returns (bool) {\n    require(!finalized);\n    finalized = true;\n    Finalized();\n    return true;\n  }\n\n  function curveIntegral(uint256 t) internal returns (uint256) {\n    uint256 nexp = exponent + 1;\n    return (t ** nexp).div(nexp).div(slope);\n  }\n\n  function priceToMint(uint256 numTokens) public returns(uint256) {\n    return curveIntegral(totalSupply_.add(numTokens)).sub(poolBalance);\n  }\n\n  function rewardForBurn(uint256 numTokens) public returns(uint256) {\n    return poolBalance.sub(curveIntegral(totalSupply_.sub(numTokens)));\n  }\n\n  /// @dev                Mint new tokens with ether\n  /// @param numTokens    The number of tokens you want to mint\n  function mint(uint256 numTokens) public payable {\n    uint256 priceForTokens = priceToMint(numTokens);\n    require(msg.value >= priceForTokens);\n\n    totalSupply_ = totalSupply_.add(numTokens);\n    balances[msg.sender] = balances[msg.sender].add(numTokens);\n    poolBalance = poolBalance.add(priceForTokens);\n    if (msg.value > priceForTokens) {\n        msg.sender.transfer(msg.value - priceForTokens);\n    }\n\n    emit Mint(msg.sender, numTokens, priceForTokens);\n  }\n\n  /// @dev                Burn tokens to receive ether\n  /// @param numTokens    The number of tokens that you want to burn\n  function burn(uint256 numTokens) public {\n    require(balances[msg.sender] >= numTokens);\n\n    uint256 ethToReturn = rewardForBurn(numTokens);\n    totalSupply_ = totalSupply_.sub(numTokens);\n    balances[msg.sender] = balances[msg.sender].sub(numTokens);\n    poolBalance = poolBalance.sub(ethToReturn);\n    msg.sender.transfer(ethToReturn);\n\n    emit Burn(msg.sender, numTokens, ethToReturn);\n  }\n\n}",
  "sourcePath": "/media/000/Documents/meme-lordz/contracts/Erc20Main.sol",
  "compiler": {
    "name": "solc",
    "version": "0.4.24+commit.e67f0147.Emscripten.clang"
  },
  "schemaVersion": "2.0.1",
  "updatedAt": "2018-09-08T01:06:53.533Z"
}