{
  "contractName": "ERC20Main",
  "abi": [
    {
      "constant": true,
      "inputs": [],
      "name": "name",
      "outputs": [
        {
          "name": "",
          "type": "string"
        }
      ],
      "payable": false,
      "stateMutability": "view",
      "type": "function"
    },
    {
      "constant": false,
      "inputs": [
        {
          "name": "_spender",
          "type": "address"
        },
        {
          "name": "_value",
          "type": "uint256"
        }
      ],
      "name": "approve",
      "outputs": [
        {
          "name": "",
          "type": "bool"
        }
      ],
      "payable": false,
      "stateMutability": "nonpayable",
      "type": "function"
    },
    {
      "constant": true,
      "inputs": [],
      "name": "totalSupply",
      "outputs": [
        {
          "name": "",
          "type": "uint256"
        }
      ],
      "payable": false,
      "stateMutability": "view",
      "type": "function"
    },
    {
      "constant": false,
      "inputs": [
        {
          "name": "_from",
          "type": "address"
        },
        {
          "name": "_to",
          "type": "address"
        },
        {
          "name": "_value",
          "type": "uint256"
        }
      ],
      "name": "transferFrom",
      "outputs": [
        {
          "name": "",
          "type": "bool"
        }
      ],
      "payable": false,
      "stateMutability": "nonpayable",
      "type": "function"
    },
    {
      "constant": true,
      "inputs": [],
      "name": "decimals",
      "outputs": [
        {
          "name": "",
          "type": "uint8"
        }
      ],
      "payable": false,
      "stateMutability": "view",
      "type": "function"
    },
    {
      "constant": false,
      "inputs": [
        {
          "name": "_spender",
          "type": "address"
        },
        {
          "name": "_subtractedValue",
          "type": "uint256"
        }
      ],
      "name": "decreaseApproval",
      "outputs": [
        {
          "name": "",
          "type": "bool"
        }
      ],
      "payable": false,
      "stateMutability": "nonpayable",
      "type": "function"
    },
    {
      "constant": true,
      "inputs": [
        {
          "name": "_owner",
          "type": "address"
        }
      ],
      "name": "balanceOf",
      "outputs": [
        {
          "name": "",
          "type": "uint256"
        }
      ],
      "payable": false,
      "stateMutability": "view",
      "type": "function"
    },
    {
      "constant": true,
      "inputs": [],
      "name": "symbol",
      "outputs": [
        {
          "name": "",
          "type": "string"
        }
      ],
      "payable": false,
      "stateMutability": "view",
      "type": "function"
    },
    {
      "constant": true,
      "inputs": [],
      "name": "poolBalance",
      "outputs": [
        {
          "name": "",
          "type": "uint256"
        }
      ],
      "payable": false,
      "stateMutability": "view",
      "type": "function"
    },
    {
      "constant": false,
      "inputs": [
        {
          "name": "_to",
          "type": "address"
        },
        {
          "name": "_value",
          "type": "uint256"
        }
      ],
      "name": "transfer",
      "outputs": [
        {
          "name": "",
          "type": "bool"
        }
      ],
      "payable": false,
      "stateMutability": "nonpayable",
      "type": "function"
    },
    {
      "constant": false,
      "inputs": [
        {
          "name": "_spender",
          "type": "address"
        },
        {
          "name": "_addedValue",
          "type": "uint256"
        }
      ],
      "name": "increaseApproval",
      "outputs": [
        {
          "name": "",
          "type": "bool"
        }
      ],
      "payable": false,
      "stateMutability": "nonpayable",
      "type": "function"
    },
    {
      "constant": true,
      "inputs": [
        {
          "name": "_owner",
          "type": "address"
        },
        {
          "name": "_spender",
          "type": "address"
        }
      ],
      "name": "allowance",
      "outputs": [
        {
          "name": "",
          "type": "uint256"
        }
      ],
      "payable": false,
      "stateMutability": "view",
      "type": "function"
    },
    {
      "constant": true,
      "inputs": [],
      "name": "memehash",
      "outputs": [
        {
          "name": "hashFunction",
          "type": "uint8"
        },
        {
          "name": "size",
          "type": "uint8"
        },
        {
          "name": "memehash",
          "type": "bytes32"
        }
      ],
      "payable": false,
      "stateMutability": "view",
      "type": "function"
    },
    {
      "constant": true,
      "inputs": [],
      "name": "controller",
      "outputs": [
        {
          "name": "",
          "type": "address"
        }
      ],
      "payable": false,
      "stateMutability": "view",
      "type": "function"
    },
    {
      "payable": true,
      "stateMutability": "payable",
      "type": "fallback"
    },
    {
      "anonymous": false,
      "inputs": [
        {
          "indexed": true,
          "name": "to",
          "type": "address"
        },
        {
          "indexed": false,
          "name": "amount",
          "type": "uint256"
        }
      ],
      "name": "Mint",
      "type": "event"
    },
    {
      "anonymous": false,
      "inputs": [
        {
          "indexed": true,
          "name": "burner",
          "type": "address"
        },
        {
          "indexed": false,
          "name": "amount",
          "type": "uint256"
        }
      ],
      "name": "Burn",
      "type": "event"
    },
    {
      "anonymous": false,
      "inputs": [
        {
          "indexed": false,
          "name": "memehash",
          "type": "bytes32"
        }
      ],
      "name": "Inited",
      "type": "event"
    },
    {
      "anonymous": false,
      "inputs": [
        {
          "indexed": true,
          "name": "owner",
          "type": "address"
        },
        {
          "indexed": true,
          "name": "spender",
          "type": "address"
        },
        {
          "indexed": false,
          "name": "value",
          "type": "uint256"
        }
      ],
      "name": "Approval",
      "type": "event"
    },
    {
      "anonymous": false,
      "inputs": [
        {
          "indexed": true,
          "name": "from",
          "type": "address"
        },
        {
          "indexed": true,
          "name": "to",
          "type": "address"
        },
        {
          "indexed": false,
          "name": "value",
          "type": "uint256"
        }
      ],
      "name": "Transfer",
      "type": "event"
    },
    {
      "constant": false,
      "inputs": [
        {
          "name": "_name",
          "type": "string"
        },
        {
          "name": "_symbol",
          "type": "string"
        },
        {
          "name": "_hashFunction",
          "type": "uint8"
        },
        {
          "name": "_size",
          "type": "uint8"
        },
        {
          "name": "_memehash",
          "type": "bytes32"
        }
      ],
      "name": "initMeme",
      "outputs": [],
      "payable": true,
      "stateMutability": "payable",
      "type": "function"
    },
    {
      "constant": false,
      "inputs": [
        {
          "name": "minter",
          "type": "address"
        },
        {
          "name": "numTokens",
          "type": "uint256"
        }
      ],
      "name": "mint",
      "outputs": [
        {
          "name": "",
          "type": "bool"
        }
      ],
      "payable": false,
      "stateMutability": "nonpayable",
      "type": "function"
    },
    {
      "constant": false,
      "inputs": [
        {
          "name": "burner",
          "type": "address"
        },
        {
          "name": "numTokens",
          "type": "uint256"
        }
      ],
      "name": "burn",
      "outputs": [
        {
          "name": "",
          "type": "bool"
        }
      ],
      "payable": false,
      "stateMutability": "nonpayable",
      "type": "function"
    },
    {
      "constant": false,
      "inputs": [
        {
          "name": "_poolBalance",
          "type": "uint256"
        }
      ],
      "name": "setPoolBalance",
      "outputs": [],
      "payable": false,
      "stateMutability": "nonpayable",
      "type": "function"
    },
    {
      "constant": false,
      "inputs": [
        {
          "name": "recipient",
          "type": "address"
        },
        {
          "name": "amountToSend",
          "type": "uint256"
        }
      ],
      "name": "sendEth",
      "outputs": [
        {
          "name": "",
          "type": "bool"
        }
      ],
      "payable": false,
      "stateMutability": "nonpayable",
      "type": "function"
    }
  ],
  "bytecode": "0x608060405234801561001057600080fd5b5061155a806100206000396000f3006080604052600436106101065763ffffffff7c010000000000000000000000000000000000000000000000000000000060003504166306fdde038114610108578063095ea7b31461019257806318160ddd146101d757806323b872dd146101fe578063313ce5671461023557806340c10f191461026057806349dcbc5e1461029157806354dfcab6146102c257806366188463146102da57806370a082311461030b57806395d89b411461033957806396365d441461034e57806397d0cf6c146103635780639dc29fac146103ff578063a9059cbb14610430578063d73dd62314610461578063dd62ed3e14610492578063f1eec401146104c6578063f77c4791146104ff575b005b34801561011457600080fd5b5061011d61053d565b6040805160208082528351818301528351919283929083019185019080838360005b8381101561015757818101518382015260200161013f565b50505050905090810190601f1680156101845780820380516001836020036101000a031916815260200191505b509250505060405180910390f35b34801561019e57600080fd5b506101c373ffffffffffffffffffffffffffffffffffffffff600435166024356105e9565b604080519115158252519081900360200190f35b3480156101e357600080fd5b506101ec61065c565b60408051918252519081900360200190f35b34801561020a57600080fd5b506101c373ffffffffffffffffffffffffffffffffffffffff60043581169060243516604435610663565b34801561024157600080fd5b5061024a610833565b6040805160ff9092168252519081900360200190f35b34801561026c57600080fd5b506101c373ffffffffffffffffffffffffffffffffffffffff60043516602435610841565b34801561029d57600080fd5b506101c373ffffffffffffffffffffffffffffffffffffffff600435166024356109ba565b3480156102ce57600080fd5b50610106600435610ace565b3480156102e657600080fd5b506101c373ffffffffffffffffffffffffffffffffffffffff60043516602435610b98565b34801561031757600080fd5b506101ec73ffffffffffffffffffffffffffffffffffffffff60043516610cbb565b34801561034557600080fd5b5061011d610ce3565b34801561035a57600080fd5b506101ec610d5c565b6040805160206004803580820135601f810184900484028501840190955284845261010694369492936024939284019190819084018382808284375050604080516020601f89358b018035918201839004830284018301909452808352979a9998810197919650918201945092508291508401838280828437509497505060ff85358116965060208601351694604001359350610d6292505050565b34801561040b57600080fd5b506101c373ffffffffffffffffffffffffffffffffffffffff600435166024356110d5565b34801561043c57600080fd5b506101c373ffffffffffffffffffffffffffffffffffffffff6004351660243561124e565b34801561046d57600080fd5b506101c373ffffffffffffffffffffffffffffffffffffffff60043516602435611354565b34801561049e57600080fd5b506101ec73ffffffffffffffffffffffffffffffffffffffff60043581169060243516611407565b3480156104d257600080fd5b506104db61143f565b6040805160ff94851681529290931660208301528183015290519081900360600190f35b34801561050b57600080fd5b50610514611455565b6040805173ffffffffffffffffffffffffffffffffffffffff9092168252519081900360200190f35b6008805460408051602060026001851615610100027fffffffffffffffffffffffffffffffffffffffffffffffffffffffffffffffff0190941693909304601f810184900484028201840190925281815292918301828280156105e15780601f106105b6576101008083540402835291602001916105e1565b820191906000526020600020905b8154815290600101906020018083116105c457829003601f168201915b505050505081565b33600081815260026020908152604080832073ffffffffffffffffffffffffffffffffffffffff8716808552908352818420869055815186815291519394909390927f8c5be1e5ebec7d5bd14f71427d1e84f3dd0314c0f7b2291e5b200ac8c7c3b925928290030190a350600192915050565b6001545b90565b73ffffffffffffffffffffffffffffffffffffffff831660009081526020819052604081205482111561069557600080fd5b73ffffffffffffffffffffffffffffffffffffffff841660009081526002602090815260408083203384529091529020548211156106d257600080fd5b73ffffffffffffffffffffffffffffffffffffffff831615156106f457600080fd5b73ffffffffffffffffffffffffffffffffffffffff841660009081526020819052604090205461072a908363ffffffff61147116565b73ffffffffffffffffffffffffffffffffffffffff808616600090815260208190526040808220939093559085168152205461076c908363ffffffff61148316565b73ffffffffffffffffffffffffffffffffffffffff8085166000908152602081815260408083209490945591871681526002825282812033825290915220546107bb908363ffffffff61147116565b73ffffffffffffffffffffffffffffffffffffffff808616600081815260026020908152604080832033845282529182902094909455805186815290519287169391927fddf252ad1be2c89b69c2b068fc378daa952ba7f163c4a11628f55a4df523b3ef929181900390910190a35060019392505050565b600354610100900460ff1681565b600073b4842e1baad02339f793b5f62de7c56a5d2ac56173ffffffffffffffffffffffffffffffffffffffff16633018205f6040518163ffffffff167c0100000000000000000000000000000000000000000000000000000000028152600401602060405180830381600087803b1580156108bb57600080fd5b505af11580156108cf573d6000803e3d6000fd5b505050506040513d60208110156108e557600080fd5b505173ffffffffffffffffffffffffffffffffffffffff16331461090857600080fd5b60015461091b908363ffffffff61148316565b60015573ffffffffffffffffffffffffffffffffffffffff8316600090815260208190526040902054610954908363ffffffff61148316565b73ffffffffffffffffffffffffffffffffffffffff841660008181526020818152604091829020939093558051858152905191927f0f6798a560793a54c3bcfe86a93cde1e73087d944c0ea20544137d412139688592918290030190a250600192915050565b600073b4842e1baad02339f793b5f62de7c56a5d2ac56173ffffffffffffffffffffffffffffffffffffffff16633018205f6040518163ffffffff167c0100000000000000000000000000000000000000000000000000000000028152600401602060405180830381600087803b158015610a3457600080fd5b505af1158015610a48573d6000803e3d6000fd5b505050506040513d6020811015610a5e57600080fd5b505173ffffffffffffffffffffffffffffffffffffffff163314610a8157600080fd5b60405173ffffffffffffffffffffffffffffffffffffffff84169083156108fc029084906000818181858888f19350505050158015610ac4573d6000803e3d6000fd5b5060019392505050565b73b4842e1baad02339f793b5f62de7c56a5d2ac56173ffffffffffffffffffffffffffffffffffffffff16633018205f6040518163ffffffff167c0100000000000000000000000000000000000000000000000000000000028152600401602060405180830381600087803b158015610b4657600080fd5b505af1158015610b5a573d6000803e3d6000fd5b505050506040513d6020811015610b7057600080fd5b505173ffffffffffffffffffffffffffffffffffffffff163314610b9357600080fd5b600455565b33600090815260026020908152604080832073ffffffffffffffffffffffffffffffffffffffff86168452909152812054808310610c065733600090815260026020908152604080832073ffffffffffffffffffffffffffffffffffffffff88168452909152812055610c48565b610c16818463ffffffff61147116565b33600090815260026020908152604080832073ffffffffffffffffffffffffffffffffffffffff891684529091529020555b33600081815260026020908152604080832073ffffffffffffffffffffffffffffffffffffffff89168085529083529281902054815190815290519293927f8c5be1e5ebec7d5bd14f71427d1e84f3dd0314c0f7b2291e5b200ac8c7c3b925929181900390910190a35060019392505050565b73ffffffffffffffffffffffffffffffffffffffff1660009081526020819052604090205490565b6009805460408051602060026001851615610100027fffffffffffffffffffffffffffffffffffffffffffffffffffffffffffffffff0190941693909304601f810184900484028201840190925281815292918301828280156105e15780601f106105b6576101008083540402835291602001916105e1565b60045481565b60035460ff1615610d7257600080fd5b600454158015610d825750600154155b1515610d8d57600080fd5b6003805460017fffffffffffffffffffffffffffffffffffffffffffffffffffffffffffff00ff909116611200177fffffffffffffffffffffffffffffffffffffffffffffffffffffffffffffff00161790558451610df3906008906020880190611496565b508351610e07906009906020870190611496565b506006805460ff848116610100027fffffffffffffffffffffffffffffffffffffffffffffffffffffffffffff00ff9187167fffffffffffffffffffffffffffffffffffffffffffffffffffffffffffffff0090931692909217161790556007819055604080517f3018205f000000000000000000000000000000000000000000000000000000008152905173b4842e1baad02339f793b5f62de7c56a5d2ac56191633018205f9160048083019260209291908290030181600087803b158015610ed057600080fd5b505af1158015610ee4573d6000803e3d6000fd5b505050506040513d6020811015610efa57600080fd5b50516040517f8ddb4773000000000000000000000000000000000000000000000000000000008152326004820181815260ff80881660648501528616608484015260a4830185905260c060248401908152895160c4850152895173ffffffffffffffffffffffffffffffffffffffff90951694638ddb4773943494938c938c938c938c938c9390929091604481019160e49091019060208a019080838360005b83811015610fb2578181015183820152602001610f9a565b50505050905090810190601f168015610fdf5780820380516001836020036101000a031916815260200191505b50838103825287518152875160209182019189019080838360005b83811015611012578181015183820152602001610ffa565b50505050905090810190601f16801561103f5780820380516001836020036101000a031916815260200191505b50985050505050505050506020604051808303818588803b15801561106357600080fd5b505af1158015611077573d6000803e3d6000fd5b50505050506040513d602081101561108e57600080fd5b5051151561109b57600080fd5b6040805182815290517f4c97e8e8d23aa7db883dfbaf58f174833566b6015bc5512d59fc8a768ddad6529181900360200190a15050505050565b600073b4842e1baad02339f793b5f62de7c56a5d2ac56173ffffffffffffffffffffffffffffffffffffffff16633018205f6040518163ffffffff167c0100000000000000000000000000000000000000000000000000000000028152600401602060405180830381600087803b15801561114f57600080fd5b505af1158015611163573d6000803e3d6000fd5b505050506040513d602081101561117957600080fd5b505173ffffffffffffffffffffffffffffffffffffffff16331461119c57600080fd5b6001546111af908363ffffffff61147116565b60015573ffffffffffffffffffffffffffffffffffffffff83166000908152602081905260409020546111e8908363ffffffff61147116565b73ffffffffffffffffffffffffffffffffffffffff841660008181526020818152604091829020939093558051858152905191927fcc16f5dbb4873280815c1ee09dbd06736cffcc184412cf7a71a0fdb75d397ca592918290030190a250600192915050565b3360009081526020819052604081205482111561126a57600080fd5b73ffffffffffffffffffffffffffffffffffffffff8316151561128c57600080fd5b336000908152602081905260409020546112ac908363ffffffff61147116565b336000908152602081905260408082209290925573ffffffffffffffffffffffffffffffffffffffff8516815220546112eb908363ffffffff61148316565b73ffffffffffffffffffffffffffffffffffffffff8416600081815260208181526040918290209390935580518581529051919233927fddf252ad1be2c89b69c2b068fc378daa952ba7f163c4a11628f55a4df523b3ef9281900390910190a350600192915050565b33600090815260026020908152604080832073ffffffffffffffffffffffffffffffffffffffff86168452909152812054611395908363ffffffff61148316565b33600081815260026020908152604080832073ffffffffffffffffffffffffffffffffffffffff89168085529083529281902085905580519485525191937f8c5be1e5ebec7d5bd14f71427d1e84f3dd0314c0f7b2291e5b200ac8c7c3b925929081900390910190a350600192915050565b73ffffffffffffffffffffffffffffffffffffffff918216600090815260026020908152604080832093909416825291909152205490565b60065460075460ff808316926101009004169083565b60055473ffffffffffffffffffffffffffffffffffffffff1681565b60008282111561147d57fe5b50900390565b8181018281101561149057fe5b92915050565b828054600181600116156101000203166002900490600052602060002090601f016020900481019282601f106114d757805160ff1916838001178555611504565b82800160010185558215611504579182015b828111156115045782518255916020019190600101906114e9565b50611510929150611514565b5090565b61066091905b80821115611510576000815560010161151a5600a165627a7a7230582029a05ef84e5f73785e8fd2c36a3b9a0b7103ba5d6e72cdc7eec888818e0d68c80029",
  "source": "pragma solidity ^0.4.24;\n\nimport \"zeppelin-solidity/contracts/token/ERC20/StandardToken.sol\";\nimport \"zeppelin-solidity/contracts/math/SafeMath.sol\";\nimport \"./ControllerI.sol\";\nimport \"./ControllerPointer.sol\";\n\ncontract ERC20Main is StandardToken {\n\n    bool inited;\n    uint8 public decimals;\n    uint256 public poolBalance;\n\n    ControllerI public controller;\n\n    Multihash public memehash;\n\n    string public name;\n    string public symbol;\n\n    struct Multihash {\n        uint8 hashFunction;\n        uint8 size;\n        bytes32 memehash;\n    }\n\n    modifier onlyController() {\n        require(msg.sender == ControllerPointer(0xb4842E1BAAD02339F793B5f62DE7C56a5d2ac561).getController());\n        _;\n    }\n\n    event Mint(address indexed to, uint256 amount);\n    event Burn(address indexed burner, uint256 amount);\n    event Inited(bytes32 memehash);\n\n    using SafeMath for uint256;\n\n    function() payable  public {}\n\n    function initMeme(\n        string _name,\n        string _symbol,\n        uint8 _hashFunction,\n        uint8 _size,\n        bytes32 _memehash\n    ) public payable {\n\n        require(!inited);\n        require(poolBalance == 0 && totalSupply_ == 0);\n\n        decimals = 18;\n        inited = true;\n\n        name = _name;\n        symbol = _symbol;\n\n        memehash.hashFunction = _hashFunction;\n        memehash.size = _size;\n        memehash.memehash = _memehash;\n\n        require(\n            ControllerI(ControllerPointer(0xb4842E1BAAD02339F793B5f62DE7C56a5d2ac561).getController()).initMeme.value(msg.value)(\n                tx.origin,\n                _name,\n                _symbol,\n                _hashFunction,\n                _size,\n                _memehash\n            )\n        );\n        emit Inited(_memehash);\n    }\n\n    /// @dev                Mint new tokens with ether\n    /// @param numTokens    The number of tokens you want to mint\n    function mint(address minter, uint256 numTokens) public onlyController returns(bool){\n        totalSupply_ = totalSupply_.add(numTokens);\n        balances[minter] = balances[minter].add(numTokens);\n        emit Mint(minter, numTokens);\n        return true;\n    }\n\n    /// @dev                Burn tokens to receive ether\n    /// @param burner         The number of tokens that you want to burn\n    /// @param numTokens    The number of tokens that you want to burn\n    function burn(address burner, uint256 numTokens) public onlyController returns(bool) {\n        totalSupply_ = totalSupply_.sub(numTokens);\n        balances[burner] = balances[burner].sub(numTokens);\n        emit Burn(burner, numTokens);\n        return true;\n    }\n\n    function setPoolBalance(uint256 _poolBalance) public onlyController {\n        poolBalance = _poolBalance;\n    }\n    /* function getPoolBalance() TODO: if needed  */\n\n    function sendEth(address recipient, uint256 amountToSend) public onlyController returns(bool) {\n        recipient.transfer(amountToSend);\n        return true;\n    }\n\n}\n",
  "sourcePath": "/Users/billy/GitHub/memelordz/meme-lordz/contracts/ERC20Main.sol",
  "compiler": {
    "name": "solc",
    "version": "0.4.24+commit.e67f0147.Emscripten.clang"
  },
  "schemaVersion": "1.0.1",
  "updatedAt": "2021-12-02T20:06:10.957Z"
}