{
  "contractName": "ProxyFactory",
  "abi": [
    {
      "constant": true,
      "inputs": [],
      "name": "target",
      "outputs": [
        {
          "name": "",
          "type": "address"
        }
      ],
      "payable": false,
      "stateMutability": "view",
      "type": "function"
    },
    {
      "inputs": [
        {
          "name": "_target",
          "type": "address"
        }
      ],
      "payable": false,
      "stateMutability": "nonpayable",
      "type": "constructor"
    },
    {
      "anonymous": false,
      "inputs": [
        {
          "indexed": false,
          "name": "proxyAddress",
          "type": "address"
        },
        {
          "indexed": false,
          "name": "targetAddress",
          "type": "address"
        }
      ],
      "name": "ProxyDeployed",
      "type": "event"
    },
    {
      "constant": false,
      "inputs": [
        {
          "name": "_data",
          "type": "bytes"
        }
      ],
      "name": "createProxy",
      "outputs": [
        {
          "name": "proxyContract",
          "type": "address"
        }
      ],
      "payable": true,
      "stateMutability": "payable",
      "type": "function"
    }
  ],
  "bytecode": "0x608060405234801561001057600080fd5b506040516020806102fd833981016040525160008054600160a060020a03909216600160a060020a03199092169190911790556102ab806100526000396000f30060806040526004361061004b5763ffffffff7c01000000000000000000000000000000000000000000000000000000006000350416638f295d598114610050578063d4b83992146100c5575b600080fd5b6040805160206004803580820135601f810184900484028501840190955284845261009c9436949293602493928401919081908401838280828437509497506100da9650505050505050565b6040805173ffffffffffffffffffffffffffffffffffffffff9092168252519081900360200190f35b3480156100d157600080fd5b5061009c6101d9565b60008054604080517fc75cdaa10000000000000000000000000000000000000000000000000000000081529051839273ffffffffffffffffffffffffffffffffffffffff169163c75cdaa191600480830192602092919082900301818787803b15801561014657600080fd5b505af115801561015a573d6000803e3d6000fd5b505050506040513d602081101561017057600080fd5b5051905061017e81846101f5565b6040805173ffffffffffffffffffffffffffffffffffffffff80841682528416602082015281519294507f3d2489efb661e8b1c3679865db649ca1de61d76a71184a1234de2e55786a6aad929081900390910190a150919050565b60005473ffffffffffffffffffffffffffffffffffffffff1681565b600060405183600b82015276603160008181600b9039f360008080808036809280377360098203527f5af43d828181803e808314602f57f35bfd000000000000000000000000000000602b820152603c816000f09150813b151561025857600080fd5b8251801561027757600080826020870134875af1151561027757600080fd5b5050929150505600a165627a7a72305820504a58950c8f388d4b1499161be7822bb20c1aff511e8d8ef61618994cee84180029",
  "source": "/***\n* Shoutouts:\n*\n* Bytecode origin https://www.reddit.com/r/ethereum/comments/6ic49q/any_assembly_programmers_willing_to_write_a/dj5ceuw/\n* Modified version of Vitalik's https://www.reddit.com/r/ethereum/comments/6c1jui/delegatecall_forwarders_how_to_save_5098_on/\n* Credits to Jorge Izquierdo (@izqui) for coming up with this design here: https://gist.github.com/izqui/7f904443e6d19c1ab52ec7f5ad46b3a8\n* Credits to Stefan George (@Georgi87) for inspiration for many of the improvements from Gnosis Safe: https://github.com/gnosis/gnosis-safe-contracts\n*\n* This version has many improvements over the original @izqui's library like using REVERT instead of THROWing on failed calls.\n* It also implements the awesome design pattern for initializing code as seen in Gnosis Safe Factory: https://github.com/gnosis/gnosis-safe-contracts/blob/master/contracts/ProxyFactory.sol\n* but unlike this last one it doesn't require that you waste storage on both the proxy and the proxied contracts (v. https://github.com/gnosis/gnosis-safe-contracts/blob/master/contracts/Proxy.sol#L8 & https://github.com/gnosis/gnosis-safe-contracts/blob/master/contracts/GnosisSafe.sol#L14)\n*\n*\n* v0.0.2\n* The proxy is now only 60 bytes long in total. Constructor included.\n* No functionalities were added. The change was just to make the proxy leaner.\n*\n* v0.0.3\n* Thanks @dacarley for noticing the incorrect check for the subsequent call to the proxy. 🙌\n* Note: I'm creating a new version of this that doesn't need that one call.\n*       Will add tests and put this in its own repository soon™.\n*\n* v0.0.4\n* All the merit in this fix + update of the factory is @dacarley 's. 🙌\n* Thank you! 😄\n*\n* Potential updates can be found at https://gist.github.com/GNSPS/ba7b88565c947cfd781d44cf469c2ddb\n*\n***/\n\npragma solidity ^0.4.24;\n\nimport \"./ControllerPointer.sol\";\n\n/* solhint-disable no-inline-assembly, indent, state-visibility, avoid-low-level-calls */\n\ncontract ProxyFactory {\n    address public target;\n\n    constructor(address _target) public {\n      target = _target;\n    }\n\n    event ProxyDeployed(address proxyAddress, address targetAddress);\n\n    function createProxy(bytes _data)\n        public\n        payable\n        returns (address proxyContract)\n    {\n        address _target = ControllerPointer(target).getERC20Main();\n        proxyContract = createProxyImpl(_target, _data);\n\n        emit ProxyDeployed(proxyContract, _target);\n    }\n\n    function createProxyImpl(address _target, bytes _data)\n        internal\n        returns (address proxyContract)\n    {\n        assembly {\n            let contractCode := mload(0x40) // Find empty storage location using \"free memory pointer\"\n\n            mstore(add(contractCode, 0x0b), _target) // Add target address, with a 11 bytes [i.e. 23 - (32 - 20)] offset to later accomodate first part of the bytecode\n            mstore(sub(contractCode, 0x09), 0x000000000000000000603160008181600b9039f3600080808080368092803773) // First part of the bytecode, shifted left by 9 bytes, overwrites left padding of target address\n            mstore(add(contractCode, 0x2b), 0x5af43d828181803e808314602f57f35bfd000000000000000000000000000000) // Final part of bytecode, offset by 43 bytes\n\n            proxyContract := create(0, contractCode, 60) // total length 60 bytes\n            if iszero(extcodesize(proxyContract)) {\n                revert(0, 0)\n            }\n\n            // check if the _data.length > 0 and if it is forward it to the newly created contract\n            let dataLength := mload(_data)\n            if iszero(iszero(dataLength)) {\n                if iszero(call(gas, proxyContract, callvalue, add(_data, 0x20), dataLength, 0, 0)) {\n                    revert(0, 0)\n                }\n            }\n        }\n    }\n}",
  "sourcePath": "/Users/billy/GitHub/memelordz/meme-lordz/contracts/ProxyFactory.sol",
  "compiler": {
    "name": "solc",
    "version": "0.4.24+commit.e67f0147.Emscripten.clang"
  },
  "schemaVersion": "1.0.1",
  "updatedAt": "2021-12-02T20:05:06.983Z"
}